:400000000080002011000000F5100000F510000008B5044B1A6803F53F5302331A6001F071F800BFFA46004010B5054C237833B9044B13B10448AFF300800123237010BD03
:4000400090C1FF1F00000000507E0000084B10B51BB108490848AFF300800848036803B910BD074B002BFBD0BDE81040184700BF0000000094C1FF1F507E0000C880FF1F56
:400080000000000038B501F047F9C043C0B201F037F91B4D2B7805EB83035B68194C226833F81220237903FB02F303F580639BB2E380E08880B201F0B3F923680133236069
:4000C0002A78114B53F8222023689A4214D8002222602B78DBB2012B07D013B1022B08D00AE00122064B1A7006E00222044B1A7002E00322024B1A7001F0AEF838BD00BF8E
:40010000CC80FF1FACC1FF1FD0C0FF1F10B501F083F8040201F07AF8204380B27A4B18811B899BB243F68802934200F0C98037D8B3F5405F00F0988018D8B3F5805F00F008
:400140009F8006D8002B00F09F80802B00F0CC80CDE0B3F5005F00F08F80B3F5025F00F0BB80B3F5845F40F0C280B9E0B3F5435F00F0AE8007D8B3F5415F79D0B3F5425FC3
:4001800000F0A280B3E043F60802934268D0B3F5625F00F09180B3F5605F40F0A8805BE0B3F57C5F44D015D8B3F5705F4CD006D8B3F5685F4CD0B3F56A5F79D097E0B3F58D
:4001C000785F3DD0B3F57A5F6AD0B3F5725F40F08E8069E043F6147293421DD00CD843F61172934214D043F6127293421CD043F6107293427BD113E0B3F57E5F48D043F663
:40020000A072934248D043F6207293426FD113E000223E4B1A756AE001223C4B1A7566E002223A4B1A7562E00322384B1A755EE00422364B1A755AE00522344B1A7556E01F
:400240000622324B1A7552E00722304B1A754EE008222E4B1A754AE009222C4B1A7546E00A222A4B1A7542E00B22284B1A753EE00C22264B1A753AE00D22244B1A7536E0DA
:400280000E22224B1A7532E00F22204B1A752EE010221E4B1A752AE011221C4B1A7526E012221A4B1A7522E01322184B1A751EE01422164B1A751AE01522144B1A7516E0DA
:4002C0001622124B1A7512E01722104B1A750EE018220E4B1A750AE019220C4B1A7506E01A220A4B1A7502E01B22084B1A75074B00221A7004490A601A7D03EB4203188B81
:4003000000F0B0FF10BD00BFACC1FF1FCC80FF1F08B501F029FB274B58815B891BB2132B03DC0022234B1A7141E0224B5B891BB2272B03DC05221F4B1A7138E01D4B5B89A7
:400340001BB23B2B03DC0A221A4B1A712FE0194B5B891BB2632B03DC0F22164B1A7126E0144B5B891BB28B2B03DC1422114B1A711DE0104B5B891BB2B32B03DC19220D4B80
:400380001A7114E00B4B5B891BB2DB2B03DC1E22084B1A710BE0074B5B891BB2EF2B03DC2322044B1A7102E02822024B1A7101F075FE08BDACC1FF1F38B5754C012323738E
:4003C000637B0133734D95F8501093FBF1F201FB1233DBB2637301F071FF637B2B4493F854301B2B00F2D380DFE803F00E151C232A31383F464D545B626970777E858C93DD
:400400009AA1A8AFB6BDC4CBFC2001F0CBFF112001F0CEFF38BDFC2001F0C4FF142001F0C7FF38BDFC2001F0BDFF102001F0C0FF38BDFC2001F0B6FF122001F0B9FF38BD8D
:40044000FC2001F0AFFF002001F0B2FF38BDFC2001F0A8FF202001F0ABFF38BDF82001F0A1FF002001F0A4FF38BDF02001F09AFF002001F09DFF38BDE82001F093FF00204D
:4004800001F096FF38BDE02001F08CFF002001F08FFF38BDE02001F085FF082001F088FF38BDC02001F07EFF002001F081FF38BDC12001F077FF002001F07AFF38BD80206C
:4004C00001F070FF002001F073FF38BD402001F069FF002001F06CFF38BD002001F062FF002001F065FF38BDFE2001F05BFF002001F05EFF38BDFE2001F054FF202001F0BF
:4005000057FF38BDFA2001F04DFF002001F050FF38BDF22001F046FF002001F049FF38BDEA2001F03FFF002001F042FF38BDE22001F038FF002001F03BFF38BDE22001F051
:4005400031FF082001F034FF38BDC22001F02AFF002001F02DFF38BDC32001F023FF002001F026FF38BD822001F01CFF002001F01FFF38BD422001F015FF002001F018FF5A
:4005800038BD022001F00EFF002001F011FF38BDACC1FF1FCC80FF1F10B502F0E1FC02F0AFFC814802F02CFC0F2228217F4802F07DFE8C2314226421104603F0B3F80322D6
:4005C00069211E2002F06CFB87231B226921104603F0A8F803226921282002F061FB872325226921104603F09DF803226421322002F056FB82232F226421104603F092F855
:4006000003225F213C2002F04BFB7D2339225F21104603F087F88C2346226421104603F081F803225F21502002F03AFB7D234D225F21104603F076F8032264215A2002F048
:400640002FFB822357226421104603F06BF803226921642002F024FB872361226921104603F060F803226E21084602F019FB8C236B226E21104603F055F88C23782264212E
:40068000104603F04FF803227321822002F008FB91237F227321104603F044F8032273218C2002F0FDFA912389227321104603F039F803226E21962002F0F2FA8C23932285
:4006C0006E21104603F02EF803226921A02002F0E7FA87239D226921104603F023F88C23AA226421104603F01DF803226921B42002F0D6FA8723B1226921104603F012F866
:4007000003226E21BE2002F0CBFA8C23BB226E21104603F007F803226E21C82002F038FA8C23C5226E21104602F0FCFF8C23DC226421104602F0F6FF6423DC22194614205E
:4007400002F0F0FF6E23DC221946142002F0EAFF7823DC221946142002F0E4FF8223DC221946142002F0DEFF8C23DC221946142002F0D8FF0E4802F043FBC82214210D4892
:4007800002F094FD0C4CDC221421204602F08EFDC822A021094802F089FDDC22A021204602F084FD10BD00BF04870000547E0000BC870000607E0000687E0000707E00005E
:4007C00008B5A54802F01CFBA44B5B7BA44A134493F854301B2B00F2B780DFE803F00E141A20262C32383E444A50565C62686E747A80868C92989EA4AAB0F0221421994878
:4008000002F054FDA0E0F0221421974802F04EFD9AE0F0221421954802F048FD94E0F0221421934802F042FD8EE0F0221421914802F03CFD88E0F02214218F4802F036FD92
:4008400082E0F02214218D4802F030FD7CE0F02214218B4802F02AFD76E0F0221421894802F024FD70E0F0221421874802F01EFD6AE0F0221421854802F018FD64E0F0229D
:400880001421834802F012FD5EE0F0221421814802F00CFD58E0F02214217F4802F006FD52E0F02214217D4802F000FD4CE0F02214217B4802F0FAFC46E0F022142179483A
:4008C00002F0F4FC40E0F0221421774802F0EEFC3AE0F0221421754802F0E8FC34E0F0221421734802F0E2FC2EE0F0221421714802F0DCFC28E0F02214216F4802F0D6FC98
:4009000022E0F02214216D4802F0D0FC1CE0F02214216B4802F0CAFC16E0F0221421694802F0C4FC10E0F0221421674802F0BEFC0AE0F0221421654802F0B8FC04E0F022A1
:400940001421634802F0B2FC444B5B7B444A134493F85410137DDBB2994205D1F02268215C4802F0A3FC04E0F02268215A4802F09DFC3B4B1B7DDBB21B2B00F20881DFE841
:4009800013F01C00220028002E0034003A00400046004C00520058005E006400AD00B300B900BF00C500CB00D100D700DD00E300E900EF00F500FB000101F022A021294816
:4009C00002F074FC08BDF022A021274802F06EFC08BDF022A021254802F068FC08BDF022A021234802F062FC08BDF022A021214802F05CFC08BDF022A0211F4802F056FCF6
:400A000008BDF022A0211D4802F050FC08BDF022A0211B4802F04AFC08BDF022A021194802F044FC08BDF022A021174802F03EFC08BDF022A021154802F038FC08BDF02208
:400A4000A021134802F032FC08BDF022A021114802F02CFC08BD00BF04870000ACC1FF1FCC80FF1F787E0000807E0000887E0000907E0000987E0000A07E0000A87E0000C9
:400A8000B07E0000B87E0000C07E0000C87E0000D07E0000D87E0000E07E0000E87E0000F07E0000F87E0000007F0000087F0000107F0000187F0000207F0000287F000090
:400AC000307F0000387F0000407F0000487F0000507F0000587F00005C7F0000F022A0212B4802F0E3FB08BDF022A021294802F0DDFB08BDF022A021274802F0D7FB08BD10
:400B0000F022A021254802F0D1FB08BDF022A021234802F0CBFB08BDF022A021214802F0C5FB08BDF022A0211F4802F0BFFB08BDF022A0211D4802F0B9FB08BDF022A02163
:400B40001B4802F0B3FB08BDF022A021194802F0ADFB08BDF022A021174802F0A7FB08BDF022A021154802F0A1FB08BDF022A021134802F09BFB08BDF022A021114802F073
:400B800095FB08BDF022A0210F4802F08FFB08BDE07E0000E87E0000F07E0000F87E0000007F0000087F0000107F0000187F0000207F0000287F0000307F0000387F0000F5
:400BC000407F0000487F0000507F000008B562B60F4800F0C9FB0F4800F00AFB0E4801F0D1FA0E4801F0D0FB00F07CFB01F09CFA01F0A2FB00F006FC00F068FC00F050FE50
:400C000001F032FBFFF7C8FCFFF7DAFDFCE700BF850000000D01000011030000B903000008B54FF40051034801F0E4FC024802F031F908BDC0C1FF1FC87F000008B500F0DF
:400C400089F808BD30B5A1B000241B941C941D941E941F946822214601A807F0F1F8234622461449144802F081FA05464FF4A072F021204604F0E0FC4FF4A072F02120463B
:400C800004F0F2FC02231D931BA9284603F01FFA0A4B01930A4B02930A4B04930A4B06930A4B08930A4B0B4A01A9284603F02DFA21B030BD5C940000B4940000ED0C0000D7
:400CC000090D0000250D00004D0D0000510D0000DD4700007D4B0000012904D108B5FFF7ADFF002008BD4FF0FF30704710B50446002000F0F9FB204601F078FA01F06AFA6F
:400D000010F0010FFAD010BD10B50446012000F0EBFB204601F06AFA01F05CFA10F0010FFAD010BD70B506460D46012000F0DCFB002408E0305D01F059FA01F04BFA10F09E
:400D4000010FFAD00134AC42F4DB70BDFEE700BFFEE700BF08B50120FFF7C8FF0A2001F08BF83620FFF7C2FF8820FFF7CDFF3A20FFF7BCFF5520FFF7C7FF1120FFF7B6FF6A
:400D80002920FFF7B3FFFA2001F076F808BD00BF024A136801331360704700BFACE3FF1F10B501F043F9002409E0204601F054F920B90749204601F047F902E00134042C0A
:400DC000F3D9042C02D9002001F054F810BD00BF910D000008B5FFF7E3FF08BDFEE700BFF0B40022174611E050F82760F3B226F0FF0608E001EB420511F812406D78A5559F
:400E00000132013BDBB2002BF4D10137242FEBD9F0BC70470E4B1B78DBB203F007010D4A11701B090132137040220B4B1A70102203F633131A700423084A137040F2011171
:400E400040321180183213704422054B1A707047CF0100496E5800405D510040005B00407658004008B50A46002106F0E9FF08BD08B506F0BFFF08BD38B50024344B1C80C2
:400E8000502202331A700B2202331A801823314A13705F21023211800232137047F22F522D4B1A80192502331D7004222B492C48FFF7DEFF02222B4B1A7008224FF0402333
:400EC0001A70032103F500731970274B1B78DBB226490B70264B1A8041F25122023B1A800CE0244B1B7803F0010343EA440404F003044FF4F07001F063FA013D0DB1032CDB
:400F0000EFD115B90320FFF769FF1B4B4FF480721A8007221A70002218490A704820023108701A700222033B1A7004220A331A70134A137843F00F031370013A137843F09E
:400F400001031370013A137843F08003137038BD80400040864000408C400040E0080048004100400043004008010049A146004022420040254200400440004006400040E2
:400F8000A2430040012807D8044B53F820201844017A13780B431370704700BF607F0000012808D8044B53F820201844017A137823EA010313707047607F000038B572B61E
:400FC000354A137843F00403137000240BE0334863001A19510001440A46098AD068FFF741FF0134E4B2082CF1D92D494FF09040FFF7F6FE0A222B4B1A7004212A48FFF732
:4010000031FF2A4A137843F0020313701032137843F002031370264C237843F040032370A2F58632513A137843F010031370082220492148FFF71CFF082220492048FFF7FC
:4010400017FF08221F492048FFF712FF08221F491F48FFF70DFF08221E491F48FFF708FF08221E491E48FFF703FF1E4A137843F0080313701C4D61232B70FFF7FDFE8123A9
:401080002B700122194B1A70FFF7C4FE0E2221461748FFF7EDFE38BDE8460040607F000094000048835800400076004003500140A0430040B008004802510040B8080048B4
:4010C00012510040C008004822510040C808004832510040D008004842510040D808004852510040224300400048004004000840B043004008B506F051FE03680C2B00D190
:40110000FEE7FEE708B5104E104D16E029686B68AC68002204E051F8040B43F8040B0432A242F8D1E868002203E0002143F8041B04328242F9D11035013E002EE6D106F081
:4011400033FEFFF743FDFEE701000000209A000008B5114A114B1A60114A136843F40073136000230AE0032B03D80E4A52F8231000E00D490D4A42F8231001332F2BF2D949
:401180000B4B1A780B4B1A70084A0B4B1A60FFF715FF00F0A3FD08BD0004FA050CED00E014ED00E000000000F51000000080FF1FBC760040C080FF1F08ED00E0014B1B6812
:4011C0001864704708ED00E04001C0B2014B1870704700BF00E400E00122014B1A60704700E100E00122014B1A60704780E100E010B50446FFF7F6FF2046FFF7DFFF01208F
:40120000FFF7E2FFFFF7E8FF10BD00BF014B1878704700BF63640040014B1878704700BF64640040084A137843F0020313701032137843F00203137002F65932137843F05A
:4012400001031370704700BFA3430040014B1870704700BF0F4F0040014B1878704700BF0F4F0040014B1880704700BF104F0040014B1880704700BF124F004008B5164A62
:40128000137803F0010313700232137803F0FC031370124B1A7802F0CF021A701A7842F030021A701A7802F0F0021A701A7842F00F021A700A4A137843F00103137040F20F
:4012C0003F40FFF7CFFF40F23F40FFF7D1FF0820FFF7BCFF08BD00BF0C4F0040174F00400D4F004008B5054B1B7823B9FFF7C6FF0122024B1A70FFF795FF08BDC0E1FF1FBB
:40130000044A137803F0BF03800100F0400018431070704710510040024B1878C0F38010704700BF11510040024B1B68C3F88800704700BF08ED00E04001C0B2014B18701E
:40134000704700BF12E400E04FF48022014B1A60704700BF00E100E04FF48022014B1A60704700BF80E100E010B50446FFF7F4FF2046FFF7D9FF0020FFF7DEFFFFF7E4FFE5
:4013800010BD00BF70B54FF4804341F6FF720121084600F0FFFA0C4E354605F8040B00F02DFD0246094C20700123102100F040FD45F68232A9B2207800F04EFD217830786D
:4013C00000F0EEFC70BD00BFC4E1FF1FE0C0FF1F08B500F03BFB034B1B78FF2B01D1FFF7D1FF08BDE0C0FF1F08B50121044B187800F08EFC00F040FB00F0EAFA08BD00BFE2
:40140000C4E1FF1F08B5054B1B7D23B9FFF7E0FF0122024B1A75FFF7E7FF08BDC4E1FF1F38B500F00F05C0F30714B0F57F6F02D9002000F01FFDFF2C08D0002318E00E4A61
:401440001A44FF2111710133DBB200E000230F2BF5D938BDC5F11002934203DA064A1A44147103E0044A1A44611C11710133DBB20F2BEFD938BD00BFC4E1FF1F084A137859
:4014800043F060031370A2F5A652133A137843F0010313701032137843F001031370704777580040054B1A7802F0FC021A701A7800F0030010431870704700BF5858004083
:4014C00008B50120FFF7EEFF08BD00BF08B5054B1B7823B90122034B1A70FFF7F1FFFFF7CDFF08BDD9E1FF1F044A137803F0DF03400100F0200018431070704720510040A9
:4015000010B59DF80840012C51D1013809282ED8DFE800F0052D2D052D2D0F192D230F2B03D92548007840B222E02448007840B21EE00F2B03D92248007840B218E021484F
:40154000007840B214E00F2B03D91F48007840B20EE01E48007840B20AE00F2B03D91C48007840B204E01B48007840B200E0002001EB401101FB02F1C90B8AB20D2B0BD892
:40158000C3F10E0289B211418AB2611E124800EB810101338B7005E0631E0F4901EB83030F219970013C0C4B23F8242010BD002000F060FC10BD00BF180100491C01004940
:4015C000190100491D0100491A0100491E0100491B0100491F010049DCE1FF1FF8B5074600F0F6FE06460D4D2B7843F003032B700B4C237843F0030323700A4B1F700320EC
:4016000000F050FC2B7803F0FC032B70237803F0FC032370304600F0DFFEF8BDF8460040F9460040925800400022314B1A7101285DD170B538222F4B1A70042202331A7017
:40164000062201331A70002401331C7001331C700F2201331A7002331C7001331C7001331C7001250A331D70142203F527631A70052601331E70162201331A7001331C70DB
:40168000442203331A70482201331A7001331D7002331D70112201331A70192201331A70972201331A705220FFF798FF5822124B1A7001331C7005331E70022201331A7030
:4016C00001331C7001331C70204600F0F3F933220A4B1A602946304600F010FA2946952000F090FA06491D2000F0FAFB70BD7047DCE1FF1F004E004094580040B0E3FF1FEC
:4017000091190000F0B583B0284D01272F70284E00247471102000F0DFF9102000F060FA03211D2000F0F0FB0422224B1A7001331C7007331C70204A137843F01803137055
:401740001E4B1C7003F2F5231C7001331C700A22A3F209331A7001331C7002331C70122205331A70132201331A7004331C701422A3F68C231A70009708234FF4004248F6DA
:401780006B510220FFF7BCFE2B78013B06EB83039A780B4B1A702B78013B36F82320094B1A802878FFF740FF03B0F0BDE1C0FF1FDCE1FF1F96580040075B0040935800404B
:4017C0000E4E00400C4E004070B500F001FE06462A4B1B782A4B1A7842F001021A701A7842F010021A7010331A7842F001021A701A7842F010021A70224D2B7843F00203E7
:401800002B70214C237843F0020323701F4A137843F003031370032000F044FB2B7803F0FD032B70237803F0FD032370184A137843F0060313707A22164B1A70164A1378C8
:4018400043F0010313701032137843F0010313700F3A137843F0010313701032137843F0010313704FF000530C4A1360A2F5C0721360304600F0B0FD70BD00BFE1C0FF1FBD
:40188000AA430040F8460040F9460040915800407758004082580040A143004080E200E008B5084B9B794BB9064BDB7913F0FF0F01D1FFF727FF0122024B9A71FFF784FF86
:4018C00008BD00BFDCE1FF1F024A137843F0010313707047004E0040024A137803F0FE0313707047004E0040094B1B7913F0FF0F03D0074B5B79DBB203E0064B1B7803F0E7
:401900000103012B01D00028EED01846704700BFDCE1FF1F014E00400E4B1B7803F00303012B03D80C4B188880B209E00A4A12780A49087842EA0020032B01D1084B1B78A1
:40194000084B1B7913F0FF0F02D00022054B5A7100B27047144E0040104E0040114E0040124E0040DCE1FF1F10B5084A137843F004031370FFF7A8FF0020FFF7B5FFFFF7E1
:40198000CBFF0446FFF7A8FF204610BD014E0040704700BFF0B583B016461F460B4D00242C700194009423460A460146204600F003FA3A463146287800F0D8F902212878F6
:4019C00000F0C2F9287803B0F0BD00BFE2C0FF1F054A137843F0040313701032137843F004031370704700BFA8430040054B1A7802F0FD021A701A7800F00200104318703F
:401A0000704700BF28580040064B1B78C3F3810303F19243063393F82831DBB2024A1370704700BF285800400A46004008B5064B1A7802F0F3021A701A7800F00C00104358
:401A40001870FFF7E1FF08BD2858004008B50023084A13700132137002F26E22137843F0080313700420FFF7E1FF0220FFF7BEFF08BD00BF28580040054A137843F0040321
:401A800013701032137843F004031370704700BFA243004010B5002404E02046FFF780FA0134E4B2012CF8D9FF22014B1A7010BDE3C0FF1F10B50446FFF7ECFF2046FFF741
:401AC00061FA014B1C7010BDE3C0FF1F014B188880B2704780400040034B1A7800F0F80010431870704700BF82400040024B187800F00700704700BF8240004070B5054679
:401B00000E46FFF7F3FF0446FFF7E0FFA84256D02B4B1B7803F0010294B900B185B938B9284B1D80284A137803F0BF03137070BD254A137843F040031370224B1D8070BD72
:401B400022B3002321490B7001240F310C7004310B700C390B7803F07F030B701A4B1B7813F0080F00D08DB9194B18800721013B1970164B1B7813F0010FFAD110490B7880
:401B800003F0FE030B700021104B19700C4B1B7813F0010F0DD00E4B1D800EB1032200E001220A4B1A70094B1B7813F0010FFAD170BD044B1D8002490B7813430B7070BD71
:401BC000A243004080400040824000400140004002400040014B188880B2704700410040034B1A7800F0F80010431870704700BF02410040024B187800F00700704700BF7F
:401C00000241004070B505460E46FFF7F3FF0446FFF7E0FFA84256D02B4B1B7803F0010294B900B185B938B9284B1D80284A137803F0BF03137070BD254A137843F0400338
:401C40001370224B1D8070BD22B3002321490B70012413310C7004390B7008390B7803F07F030B701A4B1B7813F0080F00D08DB9194B18800721013B1970164B1B7813F074
:401C8000010FFAD110490B7803F0FE030B700021104B19700C4B1B7813F0010F0DD00E4B1D800EB1032200E001220A4B1A70094B1B7813F0010FFAD170BD044B1D8002493A
:401CC0000B7813430B7070BDA1430040004100400241004001400040024000400B4A7F2313708021517007E0DA0002F1804202F5F042013BDBB21370002BF5D1DB0003F1B1
:401D0000804303F5F04300221A707047E4C0FF1F172815D831B103010A495A5C42F020025A5405E0030107495A5C02F0DF025A540001044A835C43F00103835400207047F0
:401D4000012070471070004017280BD80001064A835C03F0F103490001F00E011943815400207047012070471070004041F6FF73994201D14FF4005141F6FF739A4201D168
:401D80004FF40052172808D8C00000F1804000F5EC408180C280002070470120704700BF172805D8034B03EB0010417200207047012070471070004017281BD810B4C000EC
:401DC00000F1804404F5EC44D201D2B201F07F01114321709DF804201201D2B203F00F03134363709DF8083003F00F03A3700020E07001E00120704710BC704710B500F094
:401E0000E7FA0A4B5B78182B0BD9084A1478013B5370E30003F1804303F5F0431B78137000E0FF2400F0D8FA204610BDE4C0FF1F10F0800F0CD111F4704F0BD1C00000F143
:401E4000804000F5F04001808270C37000207047012070470120704710F0800F08D1C00000F1804000F5F0408180C280002070470120704701BE704710B5044605E0084BA3
:401E8000186800F09DFAA4F50044B4F5004FF6D8034B586800FB04F000F092FA10BD00BFECC0FF1F08B5034B1B7A00FB03F000F087FA08BDECC0FF1F70B504460E46074B06
:401EC0001D680F2802D90020FFF7D4FF04F00F0455F8240045F8246070BD00BF08ED00E070B504460E46074B1D681F2802D90020FFF7C0FF04F01F04103455F8240045F8CE
:401F0000246070BD08ED00E038B504460D46072902D90020FFF7AEFF1F2C02D90020FFF7A9FF04F01F0000F1604000F564406D01EDB2057038BD00BF024A136843F002036D
:401F40001360704710E000E008B5FFF7F5FF034A136843F00103136008BD00BF10E000E020F07F40014B1860704700BF14E000E0012805D1054A136843F0040313607047F0
:401F8000024A136823F004031360704710E000E0024B1868C0F30040704700BF10E000E010B5FFF7F5FF01280BD107E0054B03EB84035B6803B19847013400E00024042C21
:401FC000F4D910BDE8E1FF1F0022014B1A60704718E000E008B5002305E00F4A02EB8302002151600133042BF7D90C490F20FFF763FF0120FFF7BCFF094BDB680948A0FB23
:4020000003308009FFF7ACFFFFF7DEFF4FF40042054B1A6008BD00BFE8E1FF1FA11F0000ECC0FF1FD34D621000E100E008B5054B9B6923B9FFF7CEFF0122024B9A61FFF7C8
:4020400083FF08BDE8E1FF1F024B03EB8003586859607047E8E1FF1F024B03EB80004068704700BFE8E1FF1F084A137843F0010313701032137843F00103137002F64D3208
:40208000137843F001031370704700BFA3430040014B1870704700BF034F0040014B1878704700BF034F0040014B1880704700BF044F0040014B1880704700BF064F0040A3
:4020C00008B5164A137803F0010313700232137803F0FC031370124B1A7802F0CF021A701A7842F030021A701A7802F0F0021A701A7842F00F021A700A4A137843F0010359
:40210000137045F6BF50FFF7CFFF45F6BF50FFF7D1FF0820FFF7BCFF08BD00BF004F00400B4F0040014F004008B5054B1B7823B9FFF7C6FF0122024B1A70FFF795FF08BD68
:4021400004E2FF1F024B1B68C3F88400704700BF08ED00E04001C0B2014B1870704700BF11E400E04FF40032014B1A60704700BF00E100E04FF40032014B1A60704700BF0C
:4021800080E100E010B50446FFF7F4FF2046FFF7D9FF0220FFF7DEFFFFF7E4FF10BD00BF08B500F015F90A4A137843F0200313700232137843F0100313700232137843F06B
:4021C0001003137000F008F900F05CF808BD00BF98640040014B1878704700BF6A640040014B1878704700BF6C640040034B1B7813F0040FFAD0024B187070476A64004037
:402200004964004008B501E00A4B1B780A4B1B7813F0200FF8D100F0DBF8084B1A7842F001021A701A7802F0FE021A7000F0D4F808BD00BF596400406C6400409964004049
:4022400008B50F22064B1A70FFF7DCFFFFF7C2FFFFF7C6FF0023034A13700232137008BD886400408A64004008B5054B1B7823B9FFF7E6FF0122024B1A70FFF791FF08BDED
:4022800005E2FF1F054A137843F0020313701032137843F002031370704700BFA2430040024A137843F080031370704774650040014B1870704700BF87650040014B18782F
:4022C000704700BF67650040014B1860704700BF24650040014B1868704700BF44650040014B1860704700BF0465004008B501E0FFF7F0FFFFF7E2FF10F0080FF8D108BD4C
:4023000010B50B4C2046FFF7DFFF2046FFF7E8FF00F05EF8074A137843F01003137000F05BF8FFF7E3FF0120FFF7C2FF10BD00BFFF356E019765004008B5054B1B7823B93F
:40234000FFF7DEFF0122024B1A70FFF7A9FF08BD06E2FF1F014B1B685864704708ED00E04001C0B2014B1870704700BF01E400E00222014B1A60704700E100E00222014B7C
:402380001A60704780E100E010B50446FFF7F6FF2046FFF7DFFF0620FFF7E2FFFFF7E8FF10BD00BF014B1870704700BF75650040014B1870704700BF72640040000000004D
:4023C0000230800803D000BF01380046FCD17047EFF3108072B6704780F31088704700BF074B10B55A685C6A01325A605A6B02EBC0014C60002102F83010586210BD00BF70
:40240000B4E3FF1F10B50E4944680F2301EBC302126C94420A4A03D213F1FF33F6D210BD0F2B0CD81168091B11608168C06801B1486008B1016010BD02EBC303596410BD39
:40244000B4E3FF1FF8B5274E0546F368B26B013B0818134498420C4605D84B591BB943681D44FFF7CFFFB36B9C420BD954F8043C5B42E718E3582BB97B6838461D443C4653
:40248000FFF7C0FF0F2306EBC302126C954203D213F1FF33F7D223E00F2B21D8083306EBC30251686019002284E82400A160246140F8045C04F1080001B1486006EBC3031F
:4024C000A160E260586033680649EA1896F8293032602BB9CB689B1A8A68934288BF8B602846F8BDB4E3FF1F2DE9F74F234F8346B846FE68BC6B013E264494E82800A3BB12
:4025000061198E4231D954F805A0BAF1000F2CD07B6B13F83A30012B27D1D8F82C302046D1F8049000930191FFF76CFF0199D8F83420086802EBC002546020464A4605F030
:4025400064FC009B04EB09019A4508BFD8F83430284604BF5B1BC8F83430FFF773FFBBF1000F01D0584505D24D462C44A642C4D8012000E0002003B0BDE8F08FB4E3FF1F26
:4025800028B1034BDA6B026002B15060D8637047B4E3FF1F034B5B6B03EBC00040680830704700BFB4E3FF1F054BDA690132DA615A6B12F83030013302F83030FFF7EABF19
:4025C000B4E3FF1F30B50368094953F8085C4C6B14F83530012B03D9CA690AB1013ACA61013B04F8353000230360184630BD00BFB4E3FF1F024B21F0030118605960704725
:4026000008E2FF1F10B5044660B1074B5B6B03EBC00359684868FFF715FF2046BDE81040FFF7DEBE10BD00BFB4E3FF1F2DE9F041224CE36A3BB9224B9D685B680835B3FBEA
:40264000F5F5023503E023691D1D05EBD305E80000F0C2F8804660B3616B226901EBC0035E68184B08361B68D2003046E76A9847226966631346C4F82C80691E8B4205D2B5
:40268000013306EBC30040F8043CF7E706EBC3064FF00008C6F80480636862629B1A2B446360256138463FB1FFF7ACFF4046BDE8F0810120BDE8F081BDE8F081B4E3FF1FF0
:4026C00008E2FF1F1CC1FF1F70B5184A92F8283053BB012382F82830154B1021D960996811B95968890899605A2111621026002102EBC10006FA01F5013110290B4C056476
:40270000F6D158681968A0F114030B440125022222616363A163E0605D6065626560FFF791FEFFF783FF256370BD00BFB4E3FF1F08E2FF1F2DE9F0410746264E0337FFF714
:40274000C3FF27F00307306C0437F26B874238BF0746144634B154F8043C9F4223682CD01C46F7E7F368B26B02EB030858F8045CC5EB08052B6833B12046FFF7B5FE58F80F
:40278000045CC5EB08052B680BBB6B689F421EDC28461C1DFFF736FEF3686868DB1BF3607369E41B3B44C01B2C44736102D02946FFF748FE44F8047C09E00BB161685960D7
:4027C000616801B10B60A24201D12368F3632046BDE8F081B4E3FF1F2DE9F8430446394EFFF772FF356C3368AC4224BF033424F003050C35AB42334C3ED3236B62689A4250
:402800000FD97368776A013B7360736B4FEAC70803EB080252687262012203F8372057B92AE0013B2363FFF701FF236B013323630028E6D020E00F2306EBC302126C9542CF
:402840000CD213F1FF33F7D208E094682CB16268954214D9A268002AF7D101330F2B03D806EBC302526CF6E72846FFF73DFE0028E1D03846FFF7B4FD0020BDE8F883D4F8ED
:402880000490336CC5EB09020C339A4238BF4D462046FFF7B7FD736B611998444D454FF00003C8F8044027606560A360246141F8045C03DAC5EB0900FFF7C4FD3846BDE88C
:4028C000F88300BFB4E3FF1F08B1FFF785BF704773B50646FFF7F8FF054660B1FFF764FE064B02AC44F8040D1B683246002198472046FFF767FE284602B070BD20C1FF1FD6
:402900004D4B2DE9F04F1A688BB0D169CC69A389984208DBE589854205D32568C31A06954FF0FF3613E0A368002B7CD01D88A84279DB5E88864276D35B68401B666880B2A2
:4029400003EB8005069633F92030B5F90260581C099368D091F818B0A17CB2F92A900BFB01F34846B2F92270B2F92480079394F810A002F04DF9079B089018462E4D099BC8
:402980002968CA69896B0591069900FB03100490A37C4146039301230293D37E38460193937E524600935B4602F0D2FA731C1AD049F0020002F02CF92A680699D369926B60
:4029C00038460592079A02FB06160496A27C4146039201220292DA7E01929B7E524600935B4602F0B5FA2B68DB695A7E1B7E9A4215D9B9F1020F12D089F0040002F008F9ED
:402A00000D4B1B68D869437E827E017EC07E434400FB01810AFB0272384602F081F99DF8200002F0F5F8044B617C1A68538C0B4453840BB0BDE8F08FFCC0FF1F044B1B68C3
:402A4000DB69DB6909B11A7C0A60587C704700BFFCC0FF1F02230B807047C3699A89914202DBDA898A420FD2986880B1038899420CD342888A4209D3C91A436833F82100B8
:402A8000C043C0F3C030704701207047002070472DE9F74F904605460E461F46234C01EB0309236800EB020B1B6E49465B68584698472368C8EB050A1B6E49465B685046D4
:402AC00098472268EB19126E08EB0609184652684946019390472268019B126EC8EB06085268414618469047E7B12368F61B1B6E314658465B689847236831461B6E504663
:402B00005B6898472368ED1B1B6E494628465B6898474146284623681B6E5B6803B0BDE8F04F184703B0BDE8F08F00BFFCC0FF1F2DE9F84340F2C325022792FBF7F755435F
:402B40004FF47A7395FBF3F5002380468946144602FB0277FFF79CFF01350126AE4214DC04FB04F306FB06339F4206DA2346324649464046FFF78CFF013C32462346494642
:402B80004046FFF785FF0136E8E7BDE8F8830000124B73B51B681646DC6C1D6D044492B2A3B20D44991A1344ADF80430ABB2ADF800106846991A1344ADF80210ADF8063048
:402BC00003F03EFA38B1324629462046FFF7B0FF03F074F9F6E702B070BD00BFFCC0FF1F2DE9F04F40F2C32656434FF47A7396FBF3F6022392FBF3F31446804602FB02337D
:402C0000264F85B001933B6802441B6E001B1B6801258946984708EB0503029308F1FF3301360393B54235DC04FB04F305FB0533019A9A4218DAB44215DD029B04EB0901CD
:402C4000C5EB030A039B504603EB050B3B685A461B6E1B6898473B685A461B6EC4EB09011B6850469847013C3B68C4EB080A1B6E04EB080B09EB05011B685A4650469847FC
:402C80003B68C5EB09011B6E5A461B68504698470135C7E705B0BDE8F08F00BFFCC0FF1F0D4B2DE9F0411B68044600200D461646DF6CD3F8508003F0C3F950B145443C4466
:402CC000324629462046FFF78BFF03F0F7F80028F6D1BDE8F08100BFFCC0FF1FC3B2CAB29A1A92B210B514B2002CBCBF524214B204FB04F2C0F30723C1F307241B1B9BB2DE
:402D00001CB2090C002CC1EB1041B8BF5B4289B208B2B8BF1CB204FB04230028BCBF494208B280B200FB003010BD10B538B309B30AB3B2F90040B1F90030A342A8BF23465E
:402D4000B2F902400380B1F90230A342A8BF2346B2F904404380B1F90430B2F90620A342B8BF23468380B1F906309342B8BF1346C38010BD11460B6803604B68436010BD44
:402D800068B1038889B20B440380838892B219444388818013444380C3881A44C2807047024B1B685884998400207047FCC0FF1FB0F90220B1F906309A4214DCB1F9022071
:402DC000B0F906309A420EDCB0F90020B1F904309A4208DCB0F90400B1F900308342CCBF0020012070470020704708B502F0ECFB02F052FCBDE8084003F0A2B902F064BA00
:402E0000034B1B68DA6900B1D8611046704700BFFCC0FF1F094B10B41880094B0A461980084B1B68597C084B53F82130D9680C6A01461846234610BC184700BF9CE4FF1F1A
:402E40008CE4FF1FFCC0FF1FC4E4FF1F70B50B4D00240B4E45F8044B3368702221462846984733680422214606489847064B1D60064B1C70064B1C6070BD00BF18E2FF1FEC
:402E800020C1FF1FC4E4FF1FFCC0FF1FACE4FF1F88E4FF1F014BD860704700BFFCC0FF1F2DE9F3410446042016461F460D4601F0AFFE124B80461B686846DA6C1B6D144483
:402EC0001D4416441F44ADF80040ADF80460ADF80250ADF8067003F0B3F828B9404601F097FE02B0BDE8F0813B4632462946204601F016FF02F0E2FFEFE700BFFCC0FF1F4B
:402F0000002110B50846FFF74BFFBDE8104043F6FF7302491A460846FFF7C2BF01C0FFFF024BDA6FD8674260704700BF18E2FF1F10B5094C23686BB901232360FDF770FE77
:402F4000FDF780FE2046BDE81040044B40F8803FFFF7E6BF10BD00BF18E2FF1F4D2E000070B5FFF7E5FF2F4B2E222F4C2F4D1A70FDF730FF2E4B04F10C0123672B681A1D48
:402F8000DA6303F10802A2615A7C9B631B64294B53F82200C3681B6B9847274B6366EB6823622B680833A36101232377E37703F0C1F9032384F86830204BE064606F6363E7
:402FC000A36302F081F9A86802F084F91C4A1D4B1A6002F0DDF8054602F08CFA064602F08FFA06B140B902F079FA064602F079FA0146304602F078FA00210846FFF70AFFF2
:4030000003F0F0F8A36F43B1A36F33B11B6803B19847A36F5B68A367F6E70B4B01221A70284670BD7DE4FF1F18E2FF1FFCC0FF1FF4930000C4E4FF1FEC930000785634FF0B
:403040004C940000BCE4FF1FA4E4FF1F002809DC054B53F8200020B1C3681B681BB10068F9E7704700207047C4E4FF1FFFF788BAF8B51C1E06460D46174601DD0020F8BD8F
:403080001C20FFF757FB0028F8D00DB1056109E0084B53F8241029B10B680BB11946FBE70B6903610023836084618782C66003604360F8BDC4E4FF1F81690A4A52F8213027
:4030C0009842036804D142F821300BB100225A60426802B11360036803B15A600023036043607047C4E4FF1F30B508B9012030BD8469002CFADC1B4B1A789442A4BF01224D
:403100001A70194A52F8243015461BB942F82400184630BD5A680AB11346FBE7C2681268D9680968914203DD1B68002BF8D1DDE709D1818A012906D1196821B10B46C96875
:4031400009688A42F8DD5A6812B11060426001E045F824005860984208BF00230360002030BD00BF75E4FF1FC4E4FF1F38B51D46FFF77EFF044648B1FFF7B6FFE3681B68FD
:4031800023B9034B16351B6843F82540204638BDFCC0FF1F2DE9F04F054685B000287FD003F036FA404C07462368A146B3F9228003F016FA226886B2938C9B1B93842B78E6
:4031C000002B61D047F6FF71284603F089FA01468246284603F0AEFA2268938D03F00303012B04D0022B04D190FBF3F302E0034600E00023518C1FFA80FBCB1A9BB219B218
:403200005184ADF80810B2F924200BF1FF310B44ADF80C30ADF80A20BBB2013A1A44ADF80E20514602AA2846019303F0B3FA2268BDF80A1028469184514600F0BBFB2A5C85
:4032400005EB000E0A2A019B01D00D2A12D12268918D01F00301013901298ABF118CA2F8228051849EF800100A290AD1918C0B44938406E0BDF80800D9F800308344A3F860
:4032800022B09EF8003043B923689A8C16449A8D9E8422F003029A8502E00EF101058EE705B0BDE8F08F00BFFCC0FF1F024B1B6859849A84FFF76EBFFCC0FF1F204B1B686C
:4032C0009B7E013B032B37D8DFE803F0020E1C261C4B06300340002BBEBF03F1FF3363F00F0301330B2B09E0174B0340002BBEBF03F1FF3363F003030133012BCCBF0020F3
:4033000001207047142390FBF3F203FB12000B2814DD103801280BE0182390FBF3F203FB12000B280ADD20F00400A0F11003012B8CBF0020012070470020704701207047D3
:40334000FCC0FF1F0F00008003000080C0F30B00B0F5006FC6BFA0F5006001210021B0F5806FC8BFC0F50060821110B500F03F000C4CC0F1400080B234F81230402800FBCF
:4033800003F308D0102A1FBF013234F81220C0F1400000FB023303F12000800901B1404210BD00BF0894000000F58060FFF7CEBF2DE9F74F141A5D1A54EA050706468846BF
:4033C000DDF8309004D103B0BDE8F04F03F036BA85EAE57084EAE471A0EBE570A1EBE47188420ADD21462C460D4611461A460B46314601274646884600E0002784EAE471F9
:40340000A1EBE471A1421FBF984633466D4216461BBF64421A4601234FF0FF33002DD9F800B0DFF834A138D1DAF80030C7B19B7E8BB93146404603B0BDE8F04F01F046BC52
:40344000FFF73CFF30B9DAF8003071191B6E40465B6898470135A54205EB0B00F0DD18E0997E91B9414630461B6E1B6803B0BDE8F04F1847FFF722FF30B9DAF8003041462F
:403480001B6EF0195B6898470137A7420BEB0700F0DD0138C9F800005BE04FF0020294FBF2F2DAF80010B8BF5242897EB1B99146B346C6EB0B039C424BDB99FBF4F0DAF8C7
:4034C000003040441B6E5B6817B90146584600E0594698470BF1010BA944EAE7591C08BF04EB0B01B34608BFC9F800100092C6EB0B029442D9F8000021DB1844C9F800001B
:403500000193FFF7DBFE019B98B9009A92FBF4F0404437B9DAF800200146126E5846526805E05946DAF800200193126E52689047019B009A0BF1010B2A440092D7E75A1C1E
:4035400004BF2418C9F80040D9F80020D31AC9F8003003B0BDE8F08FFCC0FF1F2DE9F04FDFF8A49187B0D9F800400746247E8846012C15461E4604D1109C0094FFF718FF57
:40358000BCE0821ACB1A52EA030100F0B780002AB6BF012100215242002BBCBF5B4241F002019A42BEBF10461A4603464FEA620000EB832393FBF2F3524A4FEAA31E02EB20
:4035C0004E00C3F38303B0F92200C3F1100CB8BF41F004010CFB00F0BCF1100F1CBF02EB4E02B2F9242004F1FF3418BF03FB02001023083090FBF3F04B0748BFC0F5806069
:40360000CA0748BFC0F500608B0748BFC0F5805000F5806B5846FFF7C7FE00FB04FA5846FFF794FE6043BAF1000FBBBFCAF500739B120AF500735B42A8BF9B120028BBBFAC
:40364000C0F50070801200F500704042A8BF8012002BDBBF022293FBF2F1591C03F1FF33D2BF93FBF2F349105B100028DFBF022490FBF4F200F1FF3090FBF4F0C8BF421C25
:403680001FFA87FE89B20EEB0104C4BF52104010ADF8084092B21FFA88F480B204EB020C241A9BB2ADF80E40ACB2C3EB0E0EE31AADF81030B3B2181A1A4421440023ADF85F
:4036C0001200ADF81410ADF8162004211A4602A8ADF80AC0ADF80CE000F066F8D9F800305B7E1BB94146384603F0A8F8D9F800305B7E1BB93146284603F0A0F807B0BDE8D7
:40370000F08F00BF08940000FCC0FF1F30B585B004AC002544F8045D0094FFF71FFF05B030BD00002DE9F8431E460E4B80461B6800200C461546DF6CD3F8509002F080FC77
:4037400068B14E443D444C4433462A46214607EB0800FFF7DBFF02F0B1FB0028F4D1BDE8F88300BFFCC0FF1F0E4970B50B680B2B16DC002B01DC00220DE01A460C1D04EB89
:40378000430434F9025D561E854204DB65803246002EF6D1EFE701EB4202013390800B6070BD00BFA8E2FF1F2DE9F74F0546904643F6FF746D4F009301910023019A9342E4
:4037C0000BDA05EB8302B2F9022001339442A8BF14469742B8BF1746F0E7654E33685B696BB1B3F906200099B3F90230521A9742A3EB0103A8BF17469C42B8BF1C46009BEF
:403800001C44009BC3EB04094F45C0F2AB80594A002313609A46019B03F1FF3B019B9A455ADADA4505EB8A03B4BF0AF1010C4FF0000CB3F902304FEA8C0C05EB0C024B4530
:40384000B2F9021036D1494502D0534600201AE035F92AE035F90C003368C64440441B6E8645B8BF02461B68B9BF21467046724621461DE053B1013B05EB8302B2F902200D
:403880004A4505D101308345F4DC22E05B46F3E7C9EB0202C9EB010192EA010F35F92A004FD400EB08022146104633681B6E1B6898470EE049450CD002DB4B4544DD02E0E8
:4038C0004B4506DB01E0494503DC8B4242DC4B4520DD0AF1010AA1E74FF000094846CA46244B1B689A4513DA234B33F91AB0B9F1000F07D0336808EB0B021B6E21461B685D
:403900004044984789F001090AF1010A5846E7E7013476E74945DCDB35F92AE035F90C20C3EB0900CEEB02024243CB1A002ADBBF581000F1FF3002EB6302121A92FBF3F0AE
:403940007044FFF711FFC4E78B42E5DD4945C0DC4B45BEDB184635F90CE00B4635F92A200146DDE703B0BDE8F08F00BF01C0FFFFFCC0FF1FA8E2FF1FACE2FF1F024B1A6862
:4039800002B9186000F032B8C4E2FF1FF8B5084E0468336805461B6820469847336807465B6820469847204428603846F8BD00BFBCE4FF1FF8B506460D46064F00243DB1DA
:4039C0003B6830465B689847013D06440444F6E72046F8BDBCE4FF1F0078704701207047012070470170012070470000024B1B6803B11847704700BF24E3FF1F074A00F09F
:403A00001F01C0F3C423D35C525CC0F3451003EB0243034A105C03EB002070473C980000FC970000074AC1B2C0F30743D35C525CC0F3072003EBC223034A105C03EB40108D
:403A4000704700BFFC950000FC9400004FF6FF7070470000F0B5DFF854E00646DEF800E00D4614461F46BEF1000F03D0F446BDE8F04060470B490C4856F8042B013CC2F322
:403A800007435FFA82FECB5C11F80EE0C2F30722825C03EBCE2303EB42132B803D44EBD1F0BD00BFFC950000FC9400002CE3FF1FF0B5154E864676680F4614461D461EB1B2
:403AC000B446BDE8F0406047501E02F1804103FB00E0013907EB81010C4E0D4F0288013C02F01F0316F803E04FEAD223F35CC2F34512BA5C03EB0E4303EB022341F80439B9
:403B0000A0EB0500EAD1F0BD2CE3FF1F3C980000FC970000104670474068801A01387047084670470068401A0138704710B48468D4F8F840A44610BC60478368D3F8F43018
:403B40001847F7B5164604460D468768FFF7F5FF0190019ABB6A2946534020463246FFF7E5FF03B0F0BD13B584680092D4F8F040A04702B010BD13B584680093D4F8F04012
:403B80000B46A04702B010BD10B48468D4F8F040A44610BC604730B48468D4F8EC40A44630BC60477047000073B5079E84680C4D76B1286888B906980090D4F8A8602046D7
:403BC000B047D4F8A8302B60064BC4F8A83004E02B6813B1C4F8A8302E6002B070BD00BF34E3FF1FA53B0000026CD0F8DC3090691847026CD0F8E030906918472DE9F34722
:403C000091468A4698460A9C85680B9F00942846D5F8A860B0473946C9EB0404CAEB0806621C286C06FB0222D5F8E430806902B0BDE8F04718472DE9F34791468A46984633
:403C40000A9C85680B9F00942846D5F8A860B0473946C9EB0404CAEB0806621C286C06FB0222D5F8E830806902B0BDE8F04718470139172928D8DFE801F014272727272740
:403C80002727270E101219290C272727272727231E250F4870470F4870470F4870470F48704703689B68D3F80401704703689B68D3F8FC00704703689B68D3F800017047B7
:403CC00007487047074870470020704706487047A34000008F4000007B40000021400000853F0000A93B0000B9400000013980680D2923D8DFE801F0090B0D0F22222211BB
:403D000025070713181D01207047006870474068704780687047C0687047806B704788B1406B00F00100704760B1406BC0F34000704738B1406BC0F3800070474FF0FF30B4
:403D4000704700207047836801290CBF586C00207047826800230B804B801368013B8B805368013BCB807047F0B5104C91B06D46264607460FCE0FC596E80F00203485E86F
:403D80000F000FCC08AD0FC594E80F0085E80F007B6B10AA02EB830353F8402C53F8203CC7F80821C7F80C3111B0F0BD7494000007B580698DE806006A460321FCF78CFF4C
:403DC00003B05DF804FB0846704708467047084670471046704710467047104670474068801A013870470068401A013870470068401A013870474068801A01387047406816
:403E0000801A013870470068401A013870472DE9F34184689846E38C0E469B0717462ED5D4F80831204698470546D4F80C313A46314620469847A36922699D42D4BF002367
:403E400001239542B8BF43F00103626906469042B8BF43F0010313B9E36998420ADD62682368013A00920022D4F8A870013B11462046B847D4F8AC303246294601E0D4F8CD
:403E8000AC302046984741462046D4F8A43002B0BDE8F0411847F7B584680E46E38C17469B0743D5D4F8083120469847D4F80C31314605463A4620469847D4F89830064641
:403EC0001BB10022012120469847A36922699D42D4BF002301239542B8BF43F0010362699642B8BF43F0010313B9E3699E420ADD62682368013A00920022D4F8A870013B04
:403F000011462046B8472946D4F8AC30324620469847D4F8A03020469847D4F8983005467BB101220021204698470AE0D4F8AC30204698472046D4F8A03003B0BDE8F0401B
:403F40001847284603B0F0BD38B5856804469DB94FF4BE70FEF7EEFB084B4FF4BE721B68A06029469847A3680222DA8401221A62034A1C64C3F8102138BD00BF20C1FF1F1C
:403F8000693D000070B506460D461446FFF7DCFFB368002B3BD0262D02D0272D16D070BD9A6B102A02D0122A08D070BD184AC3F8DC40C3F8B820C3F8B42070BD154AC3F89B
:403FC000E040C3F8BC20C3F8C02070BD9A6B102A02D0122A0ED070BD3CB10F4AC3F8E440C3F8CC20C3F8C82070BDC3F8CC40C3F8C84070BD3CB1094AC3F8E840C3F8D020C9
:40400000C3F8D42070BDC3F8D040C3F8D44070BDE93B0000F33B0000FD3B0000373C000070B50646FFF790FF4FF4FA70B568FEF781FBA866B0FA80F4A86B2B680730C010D6
:404040005843FEF777FB002200284FF00101E866B0694FEA541408BF0124FCF73DFED5F810310443284698472846D5F8B0309847002CD4BF0020012070BD70B506460D4604
:404080001446FFF761FFB3681D605C6070BD70B506460D461446FFF757FFB3689D60DC6070BD10B50446FFF74FFFA06900220621BDE81040FCF710BE10B50446FFF744FF41
:4040C000A06900220521BDE81040FCF705BE38B50C460546FFF738FF2268AB68DA6262681A63A2685A63520707D51A68596883E806009A68D968DA609960A2899A842269F3
:4041000012B122EAE2721A6238BD2DE9F041044688461E461746FFF717FFA5686822414605F58A7003F066FE2046B8472046B04723699B689847A862BDE8F0810B0A80F879
:40414000713080F87210D0F820310221713018472DE9F04115460446806E0E460021A5B1034636F8022B0131170AFA2903F8027B427007D1D4F820314FF4FA71A06E9847EF
:40418000A36E0021013D1846E9E731B1D4F82031A06E4900BDE8F0411847BDE8F08108B5D0F8B830984708BD89B2FFF7C7BF00002DE9F04F3E4E82468568306885B0007C19
:4041C000884610F0010F14469946A3EB01003DD043000393471C0E9B9C4266DCD5F8CCB0EE6EBBF1000F01D1C34607E08DE850004B46224641465046D8470DE0CB450ADC08
:404200005946D5F8F4302246504698470BF1010B26F8020BF2E7EE6E039AB31E1644B34205D0A96A33F8022F4A401A80F7E7009422464B4641462846D5F8A860B0473A46D8
:40424000E96E2846FFF784FF0134C4E70E9FBC1A671C00FB07770E980090D5F8A8402846A0473368AE6EDB6B1C680123C4F3072906EB030AE4B2C7B1B846F92F28BF4FF07D
:40428000F9084FEA48013BB9D5F8203150469847C8EB07070023EEE7334672189342F3D083F8019003F8024FF8E705B0BDE8F08FFCC0FF1F2DE9F04F8FB00393836805900C
:4042C0000993199B0691082B08920CD8199A4FF48B73D340DB0706D5984B1B681B7C03F00303022B10D0069B1C9A18989918089A039B0244013A0092099ACB18D2F8A8401C
:40430000013B089A0998A047039B1C9A013B0D93069B089F13440493049A0D9B13440C93089B189AFB1A9A4240F35382199B013B0F2B00F24882DFE813F01000C10046025E
:404340004801460246024602D80146024602460246024602460246024102059B9C681D9B5B680B93754B1B681B7C03F00303022B22D0032B76D0012B74D01D9B039E1C9D63
:40438000DDF86CB0B3F80090BDF82CA04FF080089BF8002048FA05F31A4214BF5146494601352046FFF7CAFE082D04BF0BF1010B0025013EECD106E21B9B00250A932B46FB
:4043C000DDF810B0D4F86CA0DDF87080CDF81CB00A9A92F80090802242FA08F219EA02090DD01BB9D4F86CA0DDF81CB0BDF82C300135AAF800300AF1020A012313E0012BC9
:4044000010D1079B0097013B3A4659462046D4F8A860B0472A46E16E2046FFF799FE4D464B4600E04B46079A08F101080132B8F1080F079208BF0A9A039904BF01320A92C7
:40444000049A08BF4FF000080A4407999142BFD1002D00F0B8810097D4F8A8600C9B3A465946A5E1039B049A1C9DDDF86C80079303EB020A4FF0800B079B98F80020C3EB1E
:404480000A094BFA05F31A420DD0D4F8F4303A46494605989847A36A3A46434049460598D4F8F860B0470135079B082D04BF08F101080025013B0793DED184E1059B9C681C
:4044C0001D9B002B00F07F811B9B93F800B01B4B1B681B7C13F003030FD0022B40F07381049B00260A931B9BD4F86CA0DDF870900B93DDF81080324645E01C9D039EDDF8AB
:404500006C904FF0C008C5F103035A00C2F1060348FA03F303EA0B03D3401D9A013532F823102046FFF70AFE042D02BF99F801B0002509F10109013EE5D144E1FCC0FF1F61
:404540001AB9D4F86CA0CDF82880079A1D9B013653F822300AF1020A2AF8023C012209F10109B9F1040F08F1010806D10B9B4FF0000993F801B001330B93049B03990B444C
:40458000984500F0A680C9F103056D00C5F10603C02141FA03F303EA0B03EB400793CFD1012A10D1009708F1FF333A460A992046D4F8A850A8473246E16E2046FFF7C8FDB6
:4045C000079E3246CBE7079AC9E7059B9C681D9B002B00F0F8801B9B93F800B07E4B1B681B7C13F003030FD0022B40F0EC80049B00260A931B9BD4F86CA0DDF870900B93C4
:40460000DDF81080324642E01C9D039EDDF86C904FF0F008C5F101039A00C2F1040348FA03F303EA0B03D3401D9A013532F823102046FFF783FD022D02BF99F801B0002548
:4046400009F10109013EE5D1BDE01AB9D4F86CA0CDF82880079A1D9B013653F822300AF1020A2AF8023C012209F10109B9F1020F08F1010806D10B9B4FF0000993F801B013
:4046800001330B93039B04990B44984521D0C9F10105AD00C5F10403F02141FA03F303EA0B03EB400793D0D1012A10D1009708F1FF333A460A992046D4F8A850A847324681
:4046C000E16E2046FFF744FD079E3246CCE7079ACAE7002E77D000973A46D4F8A8500C9B0A992046A847324665E0059B9C681D9B002B68D0384B1B681B7C13F003030FD0BC
:40470000022B60D1DDF818A0039A00255244D4F86C80DDF86CB0CDF81CA02B460A9224E01B9D039B1B9A5B1B1344002B4BDD15F8013B1D9A204632F82310FFF7FFFCF0E745
:404740001BB9D4F86C80DDF81CA01D9B013553F8293008F1020828F8023C0123079A0132079207990A9A914219D01BF8019BB9F1000FE5D1012B10D1079B0097013B3A4678
:4047800051462046D4F8A860B0472A46E16E2046FFF7DEFC4D464B46E0E74B46DEE70D9B069A13447DB13A4651460097D4F8A8602046B0472A46E16E204602E0039A1B99F7
:4047C0000998FFF7C5FC1B9B1A9A013713441B93A6E50FB0BDE8F08FFCC0FF1F10B50446FFF7B2FBA468104B0821C4F8EC300F4B2046C4F8F0300E4BC4F8F4300D4BC4F86F
:40480000F8300D4BC4F8A0300C4BC4F8A430D4F8CC30C4F80431D4F8943098471023A363074B636410BD00BFB5420000B1410000973E00000F3E00009F410000A9410000AA
:40484000849800002DE9F04104460E461546D0F88C302A219847E16AD4F8903031442046C1F30F219847E16AB7B23944D4F890302046C9B29847E16AD4F89030314420468A
:40488000C1F30F219847E16AD4F8903039442046C9B29847D4F88C3020462B219847216BD4F8903029442046C1F30F219847216BAEB23144D4F890302046C9B29847216B21
:4048C000D4F8903029442046C1F30F219847216BD4F8903031442046C9B29847D4F88C302046BDE8F0412C2118472DE9F041044688461F461646D0F88C302A21069D984768
:40490000E16AD4F8903041442046C1F30F219847E16AD4F8903041442046C9B29847E16AD4F8903039442046C1F30F219847E16AD4F8903039442046C9B29847D4F88C30BD
:4049400020462B219847216BD4F8903031442046C1F30F219847216BD4F8903031442046C9B29847216BD4F8903029442046C1F30F219847216BD4F8903029442046C9B28F
:404980009847D4F88C302046BDE8F0412C21184713B504466B460D4A1068516803C3D4F88C302046362198472046636B02AAA18C134413F8083C21F0E0011943D4F89030E6
:4049C00089B202B0BDE81040184700BFE894000013B50446D0F814312E209847216AD4F83031684603319847236A0DEB03021DF803305078DB088008DB0243EA401390780C
:404A000043EAD00002B010BD1FB50446D0F834312E209847216AD4F85031684602319847226A0DEB42035B88C3F3C4005B1103F4FC6303433DF81200000200F4784018436C
:404A400004B010BD70B505460C46D0F81431080A9847D5F81431E0B2BDE870401847D0F8343108461847D0F81831C8B21847D0F83831084618470000082902D0102905D0EA
:404A80007047064BC0F88C30054B03E0054BC0F88C30054BC0F89030704700BF454A0000674A00005F4A00006F4A0000F0B585B00A9F8568BC1A581A0097013400FB0444DC
:404AC000D5F8A87028460B9EB847D5F814312E209847D5F83031296A02A89847D5F83031032102A898479DF80930013C4FEA93029DF808304FEAD3034FEAC32343EA421301
:404B00009DF80A2043EAD20326F8023BE6D105B0F0BDF0B587B00C9F8568BC1A581A0097013400FB0444D5F8A87028460D9EB847D5F834312E209847D5F85031296A02A88E
:404B40009847D5F85031022102A89847BDF80A30013CC3F3C4024FEA631303F4FC6343EA0203BDF808204FEA022222F4FF6243EA020326F8023BE4D107B0F0BD10B5044617
:404B8000FFF7E2F9A368114A0021C3F8AC20104AC3F8BC10C3F8A8200E4AC3F8D010C3F8B0200D4AC3F8B8200C4A10685268C3F8B400C3F8C820DA8C094822F00302DA8484
:404BC000084AC3F8CC00C3F8942010BD45480000EB48000091490000D14900000CC1FF1FAD4A0000794A000070B5084B1B681A7C82EA0001490705D59C6BD96B25680E68D1
:404C000026600D601874104670BD00BFFCC0FF1F014B1B689B68184714C1FF1F0A46154B30B41B680446B3F90A10914220DCB3F90E108A421CDCB3F90810814218DCB3F90A
:404C40000C10884214DC197C587C11F0010F0A4951F8200004D0C368214630BCDB691847C168DB6B8D691B682146AC4630BC604730BC7047FCC0FF1FC4E4FF1F114B30B4DC
:404C80001C680D46B4F90A308B4219DCB4F90E30994215DCB4F90810B4F90C308142B8BF01469342A8BF1346994209DC607C064A52F82000C26894682A46A44630BC604790
:404CC00030BC7047FCC0FF1FC4E4FF1F124B30B41C68B4F9083083421BDCB4F90C30984217DCB4F90A309942B8BF1946B4F90E309342A8BF134699420BDC084A647C52F8FF
:404D00002440E268D5680A46AC460146204630BC604730BC704700BFFCC0FF1FC4E4FF1F73B5134C2468B4F90850B4F90C608542B8BF05469642A8BF1646AE4215DBB4F922
:404D40000A208A42B8BF0A46B4F90E108B42A8BF0B469A4209DC607C064951F82000C16800930C6933462946A04702B070BD00BFFCC0FF1FC4E4FF1F2DE9F04F8FB0189D4A
:404D8000DFF8C8E10295199DDEF800E008951B9D079003950C4617460193DDF868A01C9EDDF874B01E9DBEF1000F02D0DEF8004054E0029B089A1343012B54D1614B186872
:404DC000B0F90A20531A002B0ADD0199C3EB010EBEF1000F40F3B280039901FB036602E00A46DDF804E0019B1C44B0F90E30013CE41A002C05DDC4EB0E0EBEF1000F40F313
:404E00009D80079BB0F90C103B44013B5B1A002BC8BFFF1A079B591BB0F90830994209DA5B1A1D44FF1A23F0070306EBE506194405F00705002F40F38180407C424B039CAD
:404E400053F82000C368CDF874B01C951B961A94CDF864A0CDF860E05C683B46A4460FB0BDE8F04F60477546CAF108030B93029BDFF8D090013BCDF814E00D93059B019A99
:404E800093425BDA089BE3180993013B0A93D9F800300A99B3F90A208A4248DCB3F90E309C4244DC079B4FF0000806960093CDF81080049BBB423ADAB8F1000F05D1069B37
:404EC0004FF008081D78013306930B9BCAEB080845FA03F313F0FF0105FA0AF5EDB204D1D9F80020127C920719D4D9F80020D26B10680C90BBF1000F02D05BF8213000E094
:404F0000DBB2136000990D9A0A9B0A4400982146FFF706FFD9F800300C9ADB6B1A60049B029A01330493009B13440093C1E7059B099C01330593039B1E449FE70FB0BDE8AF
:404F4000F08F00BFFCC0FF1FC4E4FF1F80E4FF1F2DE9F04F8FB0189CDFF814E20294199C1D9E0894DEF800E01B9C054603940091904601931A9F1C9C0496BEF1000F02D035
:404F8000DEF800407AE0029B089A1343012B7AD1754B01991868009BB0F90A20D31A002B07DDC91A002940F3DB80039E06FB034400E0009A9DE848001E44B0F90E30013EDF
:404FC000F61A002E03DD891B002940F3C98005EB0803B0F90C60013B9B1BB0F90860002BC8BFC3EB0808B54231DA731B082FC3EB080827D00DDC022F14D0042F1AD0012F00
:4050000026D123F0070604EBE304354403F007031EE0182F18D0202F16D0102F18D104EB430413E023F0030604EBA304354403F003030DE023F0010604EB6304354403F06D
:40504000010305E01C4401E004EB830435460023B8F1000F40F38480467C444850F82600049ED0F80CE01C93039B18911A93294643461D961B941997DEF80440A4460FB081
:40508000BDE8F04F6047F346C7F108030B93029BDFF8D4A0013BCDF818E00D93069B019A93425DDA009A089B13440993013B0A93DAF800300A99B3F90A208A4248DCB3F9E2
:4050C0000E30009A9A4243DC2E464FF000090794CDF81490059B43453ADAB9F1000F06D1079B4FF0080993F800B0013307930B9B0BFA07F24BFA03F313F0FF015FFA82FB9E
:40510000C7EB090904D1DAF80020127C920717D4DAF80020D26B10680C90049810B150F8213000E0DBB213600D9A0A9B324400993046FFF7F5FDDAF800300C9ADB6B1A6098
:40514000059B029A01330593334613441E46C1E7069B01330693039B1C44099B00939DE70FB0BDE8F08F00BFFCC0FF1FC4E4FF1F80E4FF1F044B1968044B4A7C083153F8F7
:405180002200C3681B6B1847FCC0FF1FC4E4FF1F07B5FFF7EFFF00F0B1F8002839D1FDF755FF019038B900F0FFF81B4B1A681B4B9A420CD12AE0C3680C215B6A01A898474B
:4051C000034628B3019898470028ECD021E00020FDF73CFF0190C8B1002001F03FFB0420FFF716FD43F6FF7300211A460846FFF797FD0020FFF70CFD019B0E21DB6801A883
:405200005B6A9847034608B101989847002000E0012003B05DF804FB8CE2FF1F785634FF044B1B685A7C044B53F822301B691B68184700BFFCC0FF1FC4E4FF1F044B1B6870
:405240005A7C044B53F822301B695B68184700BFFCC0FF1FC4E4FF1F044B1B681A7C52074CBF9B6BDB6B1860704700BFFCC0FF1F08B5064B1B68196B814206D01863FFF768
:40528000CFFFBDE80840FFF7E7BF08BDFCC0FF1F044B1B681A7C52074CBFDB6B9B6B1860704700BFFCC0FF1F08B5064B1B68596B814206D05863FFF7B3FFBDE80840FFF7E4
:4052C000E7BF08BDFCC0FF1F014B1B685B68184714C1FF1F014B1B681B68184714C1FF1F10B5044C2068FDF74BF9034A00232360136010BDD0E4FF1F50E3FF1F38B50A4D72
:405300002C6864B9094B18688000FDF713FA286038B10748074B40F8043FFDF701FE002038BD012038BD00BFD0E4FF1F18C1FF1F50E3FF1FE15200002DE9F843044618B34A
:4053400087681FB3144D286820B32268B2F5807F1FDC124B00261B689A42A8BF1A469046464509DA57F82600D5F80090FFF758FF49F826000136F3E7094B1B680BB1204600
:4053800098472868BDE8F883BDE8F8833846BDE8F8830020BDE8F883D0E4FF1F18C1FF1F50E3FF1FFFF7C8BF2DE9F74F00F003F91C4E8046B146DFF874A0002444452DDABB
:4053C0002046FDF743FE38B33368204693F811B05C7400F047F8082804DDD9F8003083F811B019E05AF824301A690F4B9A42F4D0204600F03AF8034600259D42EDDAEFB234
:4054000038460193FFF71AFF39460246204600F0FBF80135019BF0E70134CFE703B0BDE8F08F00BFFCC0FF1F6C980000C4E4FF1F10B50C46FDF70AFE28B1C3682146BDE84A
:4054400010409B6A184710BD002801DCFFF7F0BF00207047014608B50020FFF7E9FF20EAE07008BD0821FFF7EFBF0921FFF7ECBF024B1B68587CFFF7F8BF00BFFCC0FF1F87
:40548000034B082153F82000C3689B6A184700BFC4E4FF1F10B5FDF7D9FD28B1BDE81040C3680221DB6A184710BD0000024B1B68587CFFF7EFBF00BFFCC0FF1F024B53F861
:4054C00020301B6958687047C4E4FF1F024B53F820301B6918687047C4E4FF1F0120FFF7B9BF0220FFF7B6BF014B83E8030070475CE3FF1F014B1868704700BF5CE3FF1FA9
:40550000014B5868704700BF5CE3FF1F00283BD030F0010329D030F0030328D030F0070327D030F00F0326D030F01F0325D030F0FF0324D020F4FF7323F001030BB320F419
:405540007F6323F00F03E3B120F4FF4323F07F03BBB1030C1B04A3B1830C9B049BB110F07F4F0CBF182020207047012070470220704703207047042070470520704708200B
:405580007047102070471220704708B5FFF7BEFF01280FD0831E062B09D9A0F10903072B07D911380F288CBF0020202008BD082008BD102008BD08B50020FDF747FD003072
:4055C00018BF012008BD00000D4B10B51C461A68517C0C4A52F8210040B1C36813B11B68042B01D00068F7E7FDF766FD23680022DA6503F108025A61BDE81040FFF7BABD58
:40560000FCC0FF1FC4E4FF1F37B50C461546FDF71DFD019008B901200CE0C36810215B6A01A8984703460028F5D001982A4621469847002003B030BD37B50C461546FDF749
:4056400005FD019008B901200CE0C3680B215B6A01A8984703460028F5D001982A4621469847002003B030BD37B50C461546FDF7EDFC019008B901200CE0C3680A215B6AF0
:4056800001A8984703460028F5D001982A4621469847002003B030BD10B5074C2368186BFFF7BEFDFFF7D8FD2368586BFFF7B8FDBDE81040FFF7ECBDFCC0FF1F144B70B590
:4056C00000241C60134B14481C60144B144D1C60144B04701C60144B44601C60134B84601C60134B21461C6018222B680C309847104B21461C60104B08221C600F482B68BA
:4057000098472B682146BDE8704008220C48184700E5FF1FE8E4FF1F64E3FF1F08E5FF1F20C1FF1F10E5FF1FD8E4FF1FF8E4FF1F04E5FF1FE4E4FF1FDCE4FF1F1CE5FF1F31
:4057400014E5FF1FF0B507460C46164685B002AD002F48D03846FCF727FF876A0146BB0701903AD526B13246284600F0DCFE02E003C885E8030029462046FDF719FB60B382
:4057800017F0010F019B1CD13EB1B3F90220B6F902309342B8BF134601E0B3F90230B4F902209342B4F9062005DDBDF90A309A4213DB013B03E0BDF90E309A420DDDE380F8
:4057C0000BE0DF694FB138462A462146FFF7BAFF3846FCF7DFFE076AF4E7019B01A81F6AFCF7F0FEB4E705B0F0BD2DE9FF4106460F469046002502AC002E35D03046FCF7F0
:40580000D3FE866A0146B207019027D5B8F1000F04D04246204600F086FE02E003C884E8030021463846FDF7C3FAB8B1F30705D4BDF80C30012501333B800FE0019BDE6966
:4058400066B1224639463046FFF7CFFF0028304618BF0125FCF79EFE066AF1E7019B01A81E6AFCF7AFFEC7E7284604B0BDE8F081F0B505460E46174685B002AC7DB3284609
:40588000FCF792FE856A0146AA07019021D527B13A46204600F047FE02E003C884E8030021463046FDF784FA98B1EB0704D4BDF80830013BB3800CE0019BDD694DB12846F0
:4058C00022463146FFF7D4FF2846FCF763FE056AF4E7019B01A81D6AFCF774FECEE705B0F0BD000073B506460D462846FCF75CFE836A014613F00204019004D101A8FCF7EB
:4059000061FE204612E0304600F0F0FD019B01A89C693CB9FCF756FE054B1868431B5842584103E0FCF74EFE2546DEE702B070BDDCE4FF1F2DE9FF4106460C4600294CD02E
:40594000FCF732FE00238461019003622046FCF72BFEC76904AC44F8080D2FB9C66101A8FCF730FE204636E0019B38469D6AFCF71BFE0DF1100805F0080548F8040D75B93A
:40598000836A1A070BD5019B01A81F62029BDE61FCF718FE2046FCF715FE40461BE02046FCF710FE4046FCF70DFE3846FCF7F2FD0390039B1C6A0CB91E620BE02046FCF7D6
:4059C000E9FD002DF4D1836A1B07F1D5039B1E62019B1C6201A8FCF7F5FD04B0BDE8F08103460846B3F90220B3F90010FDF7C8B9114B30B51C6885B0626C0546BAB11068DE
:405A0000516802AB03C30D4B186800B9A06CFCF7CBFD04AC02A944F80C0DFFF7E1FF2046FCF7D0FD02A8294600F060FD02A802F0D5F805B030BD00BFFCC0FF1FD8E4FF1F52
:405A40001FB50E4B1B6893F854200AB10C4811E0986CFCF7A9FD02AC019003C884E8030001A8FCF7AFFD074B196811B12046FFF739FF2046FFF7BCFF04B010BDFCC0FF1F7E
:405A800078E3FF1FD8E4FF1F13B5044600B3FCF78BFD836A01909B0717D5406A40B10D4B1B689C4204D000F061FF019B00225A62204600F045FC04463CB12046FFF7E4FF48
:405AC0002046FCF767FD046AF6E701A8FCF77AFD02B010BD0CE5FF1FB0F90020B0F904309A4208DCB0F90230B0F906008342CCBF0020012070470020704700007FB50D4667
:405B000004461646FCF746FD816A01908B0733D52846FFF7E1FF78B340F601030B40012B2AD02046FCF740FD02AC024601902946204600F0F8FC2046FFF7CEFFC8B144F2AB
:405B40002001019B9A6A03F10805114029B1224629462846FDF7E9F80BE0324394E8030085E803009A62054A138801331380FDF73DFF01A8FCF726FD04B070BDECE4FF1F64
:405B80002022FFF7BBBFF0B50F4685B01546064648B3FCF709FD836A04AC9B07024644F80C0D03D42046FCF70DFD1CE0394602A800F0B9FC0028F5D02046FCF703FD2A46D3
:405BC00002A93046FFF79AFF304600F0B9FB04464CB120462A4602A9FFF7D5FF2046FCF7D9FC046AF4E705B0F0BD2DE9FF41804617461D460C4681B30846FCF7D5FC866A0C
:405C00000246B307019025D5414602A800F08BFC00B340F601033340012B07D101992B460A6A02A88969FFF7E0FF04E02A4602A92046FFF763FF019BDC695CB1BC4209D059
:405C400020462A4602A9FFF79EFF2046FCF7A2FC046AF2E701A8FCF7B5FC04B0BDE8F0812023FFF7C2BF1FB504AB43F8101D1946019000F027FB05B05DF804FB00230B805D
:405C800002884B8083889B1A8B804288C3889B1ACB807047F0B50F4687B00546002833D0FCF782FC866A0190B2072AD503C804ACF30384E8030002D52846FFF7E5FE5FB199
:405CC0003868796802AB03C302A90198FFF788FE02A9204600F00AFC29462046FFF702FE78B140F601033340012B06D1019B20461A6A9969FFF7B4FF03E021462846FFF766
:405D00003FFF01A8FCF75EFC07B0F0BD0021FFF7C1BF00000B4B70B51A680546966C1C4608B9094B1D689564FFF724FA2846FCF731FC2368B0F90020DA64B0F90220304680
:405D40001A6570BDFCC0FF1FF0E4FF1F2DE9F74FDDF830A098464C4B05460E461746D3F80090BAF1000F24D1484B1B8833B3484B1B685A1C012A21D99A465046FCF714FCE9
:405D8000B0F90010B0F9022001900D4416441FB9B0F904305F1A0137B8F1000F05D1B0F90630C2EB030808F1010801A8FCF70AFC04E0BAF1FF3FE0D14FF0000A0F982C302A
:405DC000FCF786FD0446002859D0304A0D9B0DF1080B49EA0309138801331380FCF7E4FB0E9B826A03612B4B4BF8080D09EA0303058046803D4446441343013D013E83621E
:405E00008580C6805846FCF7DDFB234B186848B1FCF7C0FB05462046FCF7BCFB6B6943616C6100E01C6051462046FFF783FD19F0200F02D02046FFF76DFF19F0010F1FBFE1
:405E4000164A13680133136019F0400F02D0204600F086FA19F0020F0DD02046FCF7A4FB836A009043F0020383625846FCF7AAFB2046FFF74BFF01212046FFF7F4FE204665
:405E800003B0BDE8F08F00BFF8E4FF1FD4E4FF1FDCE4FF1F9F3F3F00F0E4FF1F10E5FF1F1FB5089C0394079C0294069C019400240094FFF74BFF04B010BD00002DE9FF412E
:405EC0005D4F3B6893F85400002800F0B1805B4A136A1446012B03DD013B13620020A7E0D36902AD013302F1140696E80300D36185E8030023B99389ADF80830D38910E0D9
:405F0000138BD28A0133ADF80A20B4F910201BB29A42ADF8083006DAA389ADF80830638B0133ADF80A30BDF90A20B4F91230DFF80C819A4204DD236A0020013B236277E062
:405F40003B68986CFCF730FBBDF90820B8F90C3001909A421CD1B8F81230ADF80E30B8F81030ADF80C30344B1B689A6C5AB11046FCF710FB804600222946006AFFF7E2FB96
:405F8000D8F81820F2E7019B2946D869FFF7DAFBBDF80830ADF80C303B689A6C6AB11046FCF7F8FA002280462946006AFFF71DFC0028EDD1D8F81820F0E7019B2946D8693B
:405FC000FFF713FC0028E3D1B4F91030BDF90820ADF80C309A4207DD95E8030086E8030001A8FCF7EFFA97E73B689A6C52B11046FCF7D0FA074600222946006AFFF738FC2F
:40600000BA69F3E704AF57F80C3D2946D869FFF72FFC3846FCF7D6FA44F62063E2699A4289DC95E8030086E80300FFF709FD012004B0BDE8F08100BFFCC0FF1F64E3FF1FE7
:406040002DE9F041394E86B03268804692F8543013B9FFF7F5FC64E0354F3B6A3D460133012B3B625DDC906CFCF79EFA4FF0FF33FB61304B00901B7813B102AB083004E056
:40608000836A13F002040CD002AB03C802AC83E80300B8F1000F0CD04146204600F026FA07E03B6A6846013B3B62FCF78BFA204638E03368204F5A6CC2B1009B10685168D1
:4060C000019304AB03C33B6833B101A8FCF77AFA3868FCF769FA019004A90198FFF780FC204604A900F002FA01A800E06846FCF769FA396819B12046FFF7F4FB28B133680B
:406100002046996CFFF7EEFB18B92B6A013B2B6208E00A4B94E8030083E80300FFF7CEFE00E0012006B0BDE8F08100BFFCC0FF1F64E3FF1FF5E4FF1FD8E4FF1F70E3FF1FED
:40614000024B01221B6883F854207047FCC0FF1F10B5044623684068172B10D007DC0E2B0FD0142B14D1E16800F0D2F810E0222B0CD0282B0CD1BDE81040FFF7C7BDE0602E
:4061800010BD2146BDE8104000F02DB9024B00E00023E36010BD00BF785634FF036810B50E2B044602D00F2B09D011E0C3685A68012A12D1BDE810401868FDF7DFBB074BE7
:4061C0001868074B984203D0FCF718FEFCF798FE2046BDE81040FFF7BBBF10BDFCE4FF1F785634FF30B51D4C85B02178002932D11B4B084619601B4BA1601B681A4D596474
:406200001A4B19801A4B198004230293194B01930223009343F6FF731A46FFF741FE164A164B28601A60FFF771FD154800F068F8144800F065F82868FFF76CFDFFF780FFD5
:40624000204601232370104B40F8243F05B0BDE83040FCF765BE05B030BD00BF64E3FF1FF0E4FF1FFCC0FF1FDCE4FF1FECE4FF1FD4E4FF1F9D610000785634FFFCE4FF1FFA
:406280001CE5FF1F14E5FF1FBD56000008B500F05FF818B1FCF77EF9C06908BD08BD38B50546FFF7F3FF044654B1AC4207D02046FCF770F9036A9D4202D01C46F4E7002436
:4062C000204638BD70B50D4C064623680D46132B12DCFCF75FF902696E6042B1236828460133236090472368013B236070BD2846BDE87040FFF72CBF70BD00BF94E3FF1FD5
:40630000024B1A6802601860704700BF00E5FF1F37B50D4658B151B1FCF746F902AC44F8040D2946FFF7AAFC2046FCF74BF903B030BD0000014B1868704700BFDCE4FF1F5C
:4063400008B5034610B1FCF725F9C369184608BD08B5034610B1FCF71DF98369184608BD2DE9F043044687B0002839D0FCF71CF9034604AD019003C885E8030001A81E6A1D
:40638000D3F82890FCF71EF92046FFF788FF074630B32046FFF7DCFF19F0020F804604D0014632462846FFF75BFC2046FCF7FCF801904046FCF7F8F803903846FCF7F4F8A1
:4063C000039B019AD96906620290116201A8DC61FCF7F8F803A8FCF7F5F802A8FCF7F2F807B0BDE8F08338B505460C4641B1FFF7AFFF28B1A5602146BDE83840FFF762BF72
:4064000038BD0000F7B5061E0C4662DC324D6B6803B19847012C04D0022C20D0002C58D133E005EB8605AF68AFB93046FCF70EFE019000284DD0C3680D215B6A01A89847B0
:406440000346002845D0214601989847AB6838460133AB603EE0781CA86020463AE03046FCF7F4FD0190002833D0C3680D215B6A01A89847044600282BD02B6803B198475E
:4064800002210198A047002024E0B4002B199B68012B01D0012015E03046FCF7D7FD01900028F7D0C3680D215B6A01A8984706460028EFD0084B1B6803B19847002101984E
:4064C000B04700202544AB68002B18BF013BAB6000E0012003B0F0BD98E3FF1F024B01461B68587CFFF78EBFFCC0FF1FB1F90030B0F900209A42B8BF0380B0F90220B1F9D0
:4065000002309A42B8BF4380B0F90420B1F904309A42C8BF8380B0F90620B1F906309A42C8BFC380704770B5B1F90030B2F9005006469D42B8BF1D46B1F902300580B2F9EB
:406540000200B1F904408342B8BF0346B2F9040073808442A8BF0446B2F90600B1F90620B4808242A8BF0246A542F28004DC9342CCBF0020012070BD002070BD70B5840761
:4065800042BF02F1FF3201800230540824D0032C234601EB014502D800EB830317E0264600F11003043E032E43F8105C43F80C5C43F8085C43F8045C03F11003F2DC043C2B
:4065C000A3085E1C00EB0610A4EB8303E4E7984202D040F8045BFAE7D30748BF018070BD0A4B1A68938D03F00C03082B07D00C2B05D0042B07D1D369187E01387047D369CE
:40660000187E400870470020704700BFFCC0FF1F024B1B68DB69587E704700BFFCC0FF1F024B00211B68DB695B681847FCC0FF1F024B1B68DB695B68184700BFFCC0FF1F1B
:406640007047000073B5154602AB214A43F8081D19460190126890471E4C01902368586940B90120FFF73AFF2268D3695B693BB9194D22E02946FCF79BFB0028F1D124E0CB
:40668000164C9B68216841B1B2F9225001980099984723682846984714E000990198984710E001A8FDF772F923680646DB691B6898472B680BB130469847009B013B002BD4
:4066C0000093EEDA0020FFF709FF02B070BD00BF24C1FF1FFCC0FF1FA0E4FF1F94E4FF1F37B50D460190044688B10A4B1B68DB695C6954B1646844B1A04709E001A8FDF707
:4067000045F920B10A2802D00134AC42F6DB204603B030BDFCC0FF1F13B5002402A941F8044DFFF785FF019B9842ACBF2046181A02B010BD37B5154A02AB43F8081D0190F6
:406740001268194690470190E8B1114B1B68DB695C690CB124680CB9254602E00099A04711E0009B013B002B009307DB01A8FDF70DF90446FFF754FF0544F2E72046FFF760
:40678000CBFF2844FFE703B030BD00BF24C1FF1FFCC0FF1F274BF7B51B6805460E4663B10020FFF74DFC002841D06A4631462846FFF748FFFFF782FBF5E76B461068516892
:4067C0001D4C03C32268BDF80030B2F84C70B2F850003B44BDF80210BDF80420ADF80030BDF80630014403443A446846ADF80210ADF80420ADF80630FFF722FC236840B911
:40680000D96C5A8C521A5A84196D9A8C521A9A840DE0BDF8002031465A84BDF8022028469A846A46FFF70EFFFFF748FBE6E703B0F0BD00BF80E4FF1FFCC0FF1F064B1B682B
:406840001A7E012A02D11B6E5B681847013A022392FBF3F2FCF7C4B9FCC0FF1F70B5074C064623685D7C30B9FCF7F0FB18B123685E74FCF7BAFA284670BD00BFFCC0FF1FCB
:4068800008B5FEF7F5FDB0F5807F10D07F2810D83F2810D81F2810D80F2810D8072810D8032810D8012894BF002001200CE008200AE0072008E0062006E0052004E0042057
:4068C00002E0032000E00220012303FA00F0013808BD38B50446FEF7CBFD0546FEF7E6FDA54203D918B150F8240038BD002038BD2DE9F8438146FEF7BBFD0746FEF7D6FD8F
:406900000646E0B1002056F820304B4517D001308742F8DC002425466FF07F4856F825104846FCF7DBF9804588BF2C4605F1010588BF8046AF42F1DC2046BDE8F883BDE87A
:40694000F88337B5044670B1FBF72EFE036802AD1B6945F8040D9B689847FEF716FE04462846FBF72FFE204603B030BD37B50446D0B10E4B1B68DB6D984201D1FCF735FACA
:406980002046FBF711FE0190406908B100F018FD02AD55F8043D1868FCF768FB2846FBF711FE2046FBF72EFE03B030BDFCC0FF1F0129024818BF0020704700BF84980000FB
:4069C0001629024818BF0020704700BF91740000006810B1C3681B6A1847704737B580680D46FBF7E1FD0246B2F904301489B2F906102B801C44538902A80B44013B013CD8
:406A000040F8042D6980AC80EB80FBF7DBFD03B030BD00000E4B73B51B680646D86D0D46FBF7C2FDB0F90610C468691AB0F9045002AB761B7600183604FB016543F8040D4C
:406A400044191846FBF7BEFD204602B070BD00BFFCC0FF1F08B508461146FFF7DBFF008808BD0000144BF7B51B680746D86D16460D46FBF799FD314600902846FFF7CAFFC6
:406A80003B6904469B68984723885840009B2080586960B1FBF788FD836802AC44F8040D1B683246294698472046FBF78BFD6846FBF788FD03B0F0BDFCC0FF1F73B51C4647
:406AC000104B0D461B681646D86DFBF76DFD314600902846FFF79EFF009B0480586960B1FBF762FD836802AC44F8040D1B683246294698472046FBF765FD6846FBF762FD36
:406B000002B070BDFCC0FF1F2DE9F7432C4C1E4623688046D86D0F461546FBF745FD00904069A14608B1FBF73FFD019029463846FFF770FFD9F8003004461A7CD2071FD55E
:406B4000D8F810309B6898471FFA80F8019820B183682A461B68394698472388013588EA03032380009BB542DB681C44EEDD6846FBF728FD019B03B301A8FBF723FD1CE022
:406B8000DB6B009AD3F80090019BD2F80C8063B101982A46836839461B6801359847AE42A4F800904444F3DAE1E7751B0135013DA4F800904444FAD1D9E703B0BDE8F08342
:406BC000FCC0FF1F2DE9F04F2A4F1D463B681446DA6B87B012688346D86D89460292FBF7E3FC214604904846FFF714FF049A0646D3685069C9EB0505039305F1010A88B157
:406C0000FBF7D2FC109B0DF118081B1B013348F8040D224600934946534600F0E5FB4046FBF7D0FCBDF808806D00109B9C421ADC3B681B7CDB070DD5DBF810309B689847BD
:406C4000B31E80B2711933F8022F42408B421A80F9D104E0524641463046FFF78FFC039B01341E44E1E704A8FBF7ACFC07B0BDE8F08F00BFFCC0FF1F07B50092FFF7A2FFE2
:406C800003B05DF804FB00002DE9F04F904D91B002932B680A90D86D0E4605921D9CFBF783FC0E90406908B1FBF77EFC0F9010A850F8083DDB680793FBF784FC1E9B0F983F
:406CC00006EB030B50B12B681B7C990706D11A9B059A00935946029B00F086FB05995846FFF798FE1B9B0546102B22D1029BDFF8E4914FEA430800261A9B9E4280F24A8301
:406D00008CB185B10F9F424621462846D9F80030984747B1BB68059AD3F804A03244029B59463846D0471C9B01361C44079B1D44E2E71B9B172B44DD6FF0030303FB0BF3F1
:406D400006936FF0010303FB0BF30493029B4FF000085B4408931A9B984580F21B83059B03EB080934B91C9B08F101081C44079B1D44F0E7002DF6D00F9F37B1BB684A4609
:406D80005E685946029B3846B0475E46069B04EB030A049BEB1803930A9B5AF826001B691B689847039B23F816002FB1BB684A461B68314638469847089B01369E42EBD1B1
:406DC000D1E71B9B082B40F08780029B059E5B0006936FF0010303FB0BF30393029BDFF8F0905B44013C0493059B1A9AF31A9A4204F1010140F3CE821F9B002B36D0D9F8B8
:406E000000301B7C13F0030309D0022B5AD1039BDDF83C80EB180893A2465F4621E0069B2246E9182B4612F8010F1F9F57F8200023F8020B8B42F6D144E01F9A52F82330FE
:406E4000089A22F81730B8F1000F06D0D8F8083032461B68394640469847049B01379F4230D01AF8013F002BF7D0E6E7D9F800301B7C13F0030309D0022B23D1039BDDF8C3
:406E80003C80EB180893A2465F4616E0114B029A28461B68984715E0089A22F81730B8F1000F06D0D8F8083032461B68394640469847049B01379F4204D01AF8013F002BB7
:406EC000F7D0E9E7079B01361D441C9B1C448BE7FCC0FF1F1CC1FF1FAF4B1F9A002A08BF1A461E9B1F925B000B931E9B9B000C93631C0393831C0693059B0493069B059A45
:406F00009C1E039B03F1FF3A049B9B1A1A9A9A4240F340821B9B022B00F0C980042B00F06481012B40F02A829C4B1B68D86DFBF73BFB1E9B9A4AC3F10805039B0E9013F84F
:406F4000013CDDF83C90D65C1E9B029F1E41934B1B681B7C03F00303022B1FD0032B59D0012B57D0BD4228BF3D4622462B467F1B1F9806F0010150F82110013B22F8021B1A
:406F80004FEA5606F4D104EB4504002F00F08B801AF8013F824A0825D65CE3E7D8461F9B9B880893BD4228BF3D467F1BB9F1000F24D01EB904EB4504A84423E0F20709D5B3
:406FC000D9F80830049A1B68414648469847BDF820302380013D08F1010804F1020411D07608E6E7F30748BFBDF8203004F1020448BF24F8023C013D04D07608002EF1D182
:4070000004EB4504002F4ED01AF8013F644A0825D65CC7E70A9BD8461B699B68984783B20993039B0893BD4228BF3D467F1BB9F1000F1CD0A24608EB05030D93F0070CD588
:40704000D9F80830049A1B68414648469847BAF80030099A5340AAF800300D9B08F1010898450AF1020A4FEA5606E7D10FE02A462346F10744BF1988099803F1020344BF2C
:40708000414023F8021C013A4FEA5606F1D104EB450447B1089B424A1B780825D65C089B01330893BFE70EA8FBF78CFA66E11E9BC3F10405039BEDB213F8016C0B9B9E40F7
:4070C000364BF6B21B681B7C03F00303012B09D00AD3022B40F052810F9BDDF8088008935F4636E0029B79E0029B9D42C8BFDDB22A4621465B1B1F9FB00957F82000013AEF
:40710000B60012F0FF0221F8020BF6B2F3D1013DEDB2013504EB4504002B00F02F811AF8016F0425E1E716F0C00F24D10D9B09F10109B6009945F6B2F5D16B1C013704EB55
:4071400043042F44B8F1000F00F018811AF8016F04254545C8BF5FFA88F5C5EB0808013DEDB27B1C2B440D936FF0010303FB0743B9460993D7E71F9AB30952F82330099A86
:4071800022F81930089B002BD0D09B68049A1B68494608989847C9E7B8980000FCC0FF1FF898000016F0C00F18BF088802F1FF321CBF80F0FF000880B60012F0FF0201F185
:4071C0000201F6B2EED1013DEDB2013504EB4504002B00F0D3801AF8016F04259D42C8BFDDB25B1B2A462146DCE7039B0C9A13F8013C93406B4ADDB21268127C02F003021A
:40720000012A00F0958002D3022A35D0B6E01E9B5BB11F9B2D0953F82530039A2380029B069C013B1578924600E0029B012B1ADD5910221D03F001030AEB01001F9F2E09E3
