:1000000090FE237480F0782079227A287B00740097
:10001000120036743812003A12003E740C12003A84
:1000200012003E740112003A12003E748012003A2F
:1000300012005D1200508982F0228882F0228982AB
:100040007440F07400F022898274C0F07480F02251
:1000500012006812007B12005DDAF580FE7CFF7DE5
:10006000FFDDFE7DFFDCFA22EBC082C08390100032
:100070009360060BD083D0822280FE12003A1200D9
:02008000472215
:0D100000362E3131352052756C657321009C
:00000001FF
