:1000000090FE237480F0782079227A057B007400BA
:1000100012003B743812003F120043740C12003F70
:100020001200437A05740112003F120043748012DB
:10003000003F1200631200841200558982F022886A
:1000400082F02289827440F07400F022898274C0A8
:10005000F07480F02212006E12007D120063DAF557
:100060000200007CFF7DFFDDFE7DFFDCFA22EBC09D
:1000700082C083901000930BD083D0822212003F65
:1000800012004C22758210F020B5FDE0F59075F05D
:1000900033842430C083901000F0E5F075F00584BF
:0900A0002430758202F0D08322A5
:05100000302E302056E7
:00000001FF
