:03000000020100FA
:0B000B00C0E0120126120135D0E032E7
:1001000012010612014E7590FF780079007A007B8B
:10011000407C007D017E007F03758C4C75A8827544
:10012000890275881022C3E82CF8E93DF9120144D0
:1001300090FE40F022C3EA2EFAEB3FFB12014490FE
:10014000FE44F022C39010009375F002842230B474
:10015000FDE590540F780079007A00B400097D0124
:100160007F037B4002014EB401097D047F047B4084
:1001700002014EB402097D017F047B0002014EB4EE
:10018000030CC3EE2401FEEF2400FF02014EB40471
:100190000CC3EE9401FEEF9400FF02014EC2AF02C9
:0201A00001005C
:10100000808386898C8F9295989B9EA2A5A7AAAD76
:10101000B0B3B6B9BCBEC1C4C6C9CBCED0D3D5D788
:10102000DADCDEE0E2E4E6E8EAEBEDEEF0F1F3F440
:10103000F5F6F8F9FAFAFBFCFDFDFEFEFEFFFFFFF8
:10104000FFFFFFFFFEFEFEFDFDFCFBFAFAF9F8F6DE
:10105000F5F4F3F1F0EEEDEBEAE8E6E4E2E0DEDCF5
:10106000DAD7D5D3D0CECBC9C6C4C1BEBCB9B6B30E
:10107000B0ADAAA7A5A29E9B9895928F8C898683D6
:10108000807C797673706D6A6764615D5A585552D9
:101090004F4C494643413E3B393634312F2C2A28A8
:1010A0002523211F1D1B1917151412110F0E0C0BD0
:1010B0000A090706050504030202010101000000F8
:1010C00000000000010101020203040505060709F2
:1010D0000A0B0C0E0F1112141517191B1D1F2123BB
:1010E00025282A2C2F313436393B3E414346494C82
:1010F0004F5255585A5D6164676A6D707376797C9A
:00000001FF
