:03000000020100FA
:03000300020100F7
:03000B00020100EF
:03001300020100E7
:03001B00020100DF
:03002300020100D7
:03002B00020100CF
:10010000C2AF12013F1202D50A0D57656C636F6DC5
:100110006520746F20362E313135210A0D4D494E40
:100120004D4F4E3E200075812FC2AFC2001202D546
:100130000D0A2A00C298120298FA0202B480E775EA
:100140008920758841758DFD75985022024E024EAA
:10015000024E024E0206024E024E01F0024E024EC6
:10016000024E024E024E024E024E024E024E024E0F
:1001700001D5024E024E024E018201B0024E024EE5
:10018000024E12027CD2E71202F4F583758200124D
:1001900002E9E5831202F4E5821202F4743D1202D0
:1001A000C312027C1202F4F0A3E58270E202013D68
:1001B00012027CD2E7C0E01202F412027CC0E0120C
:1001C00002F4D082D083743D1202C312027C120268
:1001D000F4F002013D12027CF5831202F412027C5B
:1001E00085E0821202F41202E9E01202F402013DFB
:1001F00012027CFF1202F412027CC0E01202F4121E
:1002000002E9EFC0E0221202E9743E1202C31202B8
:10021000CBB43AFA12028E6021F812028ED2E7F5C0
:100220008312028EF58212028E12028EF0A3D8F98A
:1002300012028E742E1202C380D412028E12028E0B
:1002400012028E12028E742E1202C302013D12029D
:10025000D50D0A2062616420636F6D6D616E64204C
:100260000002013D1202D50D0A2062616420706116
:1002700072616D65746572200002013D1202CB123D
:10028000031BC4F5F01202CB12031B45F02212022D
:100290007C200001220202641202CBC2E51202C3DA
:1002A000C394405003120264C0E0941B4003120246
:1002B00064D0E02290014CEA230493C0E0EA239347
:1002C000C0E022C299F5993099FD223098FDE59958
:1002D000547FC29822D083D082E493B40002800677
:1002E0001202C3A380F3740173740A1202C3740D63
:1002F0001202C322C0E01203031202C3EA1202C3B5
:10030000D0E022FA540F24F650022407243ACAC43B
:10031000540F24F650022407243A22C20024D0505D
:1003200017C324F64003240A22C2E5C324F9500867
:10033000C324FA4003540F22D20002013D02000000
:00000001FF
