:03000000020100FA
:07000B00120125120134323D
:1001000012010812010680FE780079007A007B4017
:100110007C007D017EEF7F02758C4C75A88275890D
:100120000275881022C3E82CF8E93DF912014390CA
:10013000FE40F022C3EA2EFAEB3FFB12014390FE91
:0D01400044F022C39010009375F002842259
:10100000808386898C8F9295989B9EA2A5A7AAAD76
:10101000B0B3B6B9BCBEC1C4C6C9CBCED0D3D5D788
:10102000DADCDEE0E2E4E6E8EAEBEDEEF0F1F3F440
:10103000F5F6F8F9FAFAFBFCFDFDFEFEFEFFFFFFF8
:10104000FFFFFFFFFEFEFEFDFDFCFBFAFAF9F8F6DE
:10105000F5F4F3F1F0EEEDEBEAE8E6E4E2E0DEDCF5
:10106000DAD7D5D3D0CECBC9C6C4C1BEBCB9B6B30E
:10107000B0ADAAA7A5A29E9B9895928F8C898683D6
:10108000807C797673706D6A6764615D5A585552D9
:101090004F4C494643413E3B393634312F2C2A28A8
:1010A0002523211F1D1B1917151412110F0E0C0BD0
:1010B0000A090706050504030202010101000000F8
:1010C00000000000010101020203040505060709F2
:1010D0000A0B0C0E0F1112141517191B1D1F2123BB
:1010E00025282A2C2F313436393B3E414346494C82
:1010F0004F5255585A5D6164676A6D707376797C9A
:00000001FF
