:03000000020100FA
:1001000012014612010E12010E12017680F57803DB
:100110008002D2B430B2FB30B4FA1201551201CDD4
:10012000C0E0D8F01201D5D000D001D00274648AAA
:10013000F0A4FA740A89F0A4282AD000D001FBC0E8
:1001400003C001C00022758920758840758DFD753A
:100150009850D2B422C2B3740F5590D2B312016337
:10016000C2B4220483222B3332312D363534303958
:100170003837303030308002D2B430B2FB30B4FA8D
:100180001201551201CDFC1201D5D000D001D002D0
:10019000D003EBBC2B032A8009BC2D04C39A800238
:1001A00074001201ADC002C0001201D52275F064C6
:1001B000841201C6E5F075F00A841201C6E5F0125A
:1001C00001C61201D522C394D01201CD22C299F5E5
:1001D000993099FD22740A1201CD740D1201CD22BD
:00000001FF
