:03000000020100FA
:1001000012016712010E12010E12013E80F57803F2
:1001100012017412017E24D0C0E0D8F4120186D0FE
:1001200000D001D00274648AF0A4FA740A89F0A4A1
:10013000282AD000D001FBC003C001C00022120158
:100140007412017EFCD000D001D002D003EBBC2B96
:10015000032A8009BC2D04C39A80027400F590C064
:1001600001C00012018622758920758840758DFDB9
:10017000759850223098FDE599547FC29822C29913
:10018000F5993099FD22740A12017E740D12017ED8
:01019000224C
:00000001FF
