:03000000020100FA
:1001000012014912011912011912017C80F58002B5
:10011000D2B430B2FB30B4FA227903120158120182
:10012000C924D0C0E0D9F41201D1D000D001D0024E
:1001300074648AF0A4FA740A89F0A4282AD000D042
:1001400001FAC002C001C00022758920758840757F
:100150008DFD759850D2B422C2B312010E740F55A2
:1001600090D2B3120169C2B4220483222B333231FC
:100170002D3635343039383730303030120158129E
:1001800001C9FC1201D1D000D001D002D003EBBCD8
:100190002B032A8009BC2D04C39A8002740012012B
:1001A000A9C001C0001201D12275F064841201C2FD
:1001B000E5F075F00A841201C2E5F01201C21201E5
:1001C000D122C394D01201C922C299F5993099FD68
:0C01D00022740A1201C9740D1201C92228
:00000001FF
