:03000000020100FA
:07000B001201C61201D832F8
:1001000012010612014B7C0290FE237480F07400F1
:10011000120193743812019812019D740C12019807
:1001200012019D740112019812019D7480120198B0
:1001300090FE007A007400F0758CA478C879647B16
:100140002875A8827589027588102212015080FBDB
:10015000740112019812019D748012019874471263
:1001600001BC743A1201BCEC24301201BCEAB400A8
:100170000C74301201BC1201B11201B1227432129E
:1001800001BC742E1201BC74351201BC1201B112F3
:1001900001B12290FE22F02290FE20F02290FE2259
:1001A0007440F07400F02290FE2274C0F07480F06D
:1001B000227EFF7FFFDEFE7EFFDFFA221201981211
:1001C00001A71201B122D80F78C8D90B7964EAB41B
:1001D00000037A80227A0022DB107B2890FE10F048
:1001E00020B5FDE0FDF5901201EB22EAC39D50041D
:1001F000740080088CF0A430D20274FF90FE00F0EE
:0102000022DB
:00000001FF
