:03000000020100FA
:04000B001201393273
:1001000012010F120185D2AF20AFFD7A2580F49045
:10011000FE237480F07582227400F0758922758D3B
:10012000FD758CA475885075985075A8027864790F
:10013000647A19759000D2B322D8407864D93C799A
:1001400064C2AFDA01227401F590F07404F590F006
:100150007402F590F07408F590F07400F590F07B5F
:10016000108B90C2B37CFFDCFE12017CD2B3120173
:10017000A0742012018BDBE91201952290FE10F091
:1001800020B5FDE0223098FDC29822C299F599F57C
:10019000903099FD22740A12018B740D12018B228A
:1001A000C0E01201AF12018BED12018BD0E022FDF5
:1001B000540F24F650022407243ACDC4540F24F6D9
:0701C00050022407243A223B
:00000001FF
