:400000000080002011000000890300008903000008B5044B1A6803F53F5302331A6000F0BBF900BFFA46004010B5054C237833B9044B13B10448AFF300800123237010BDAB
:4000400000C1FF1F00000000800A0000084B10B51BB108490848AFF300800848036803B910BD074B002BFBD0BDE81040184700BF0000000004C1FF1F800A0000C880FF1FFE
:400080000000000010B500F05DFAC043C0B200F04DFA174C2378174A52F82330616833F81110137C03FB01F303F500639BB22381208980B200F09CFA6368013363602278ED
:4000C0000D4B53F8222063689A420DD80022626023780133094A134003D5013B63F003030133DBB2024A137000F0CCF910BD00BF1CC1FF1FCC80FF1F70C0FF1F03000080C2
:40010000F0B58FB062B6154C6D4604F130072E4620686168A268E3680FC610343546BC42F5D12068616803C50D4800F013FC00F0EFF900F04FFA00F043FC00240BE00EAB9C
:4001400003EB440333F8380C00F0A2F94FF47A7000F0CAFB01341B2CF1DDEEE7840A000085000000FEE700BFF0B40022174611E050F82760F3B226F0FF0608E001EB4205DA
:4001800011F812406D78A5550132013BDBB2002BF4D10137122FEBD9F0BC70470A4B1B78DBB203F00701094A11701B09013213701022074B1A7040F20112B0331A80442225
:4001C000A3F2CA231A707047CF0100496E580040905A004008B50A46002100F048FC08BD38B55F22244B1A80182202331A70022203F27E231A7008224FF040231A7003219E
:4002000003F5007319701D4B1B78DBB21C490B701C4B1A8041F25122023B1A80002419250CE0194B1B7803F0010343EA440404F003044FF4F07000F0D3FB013D0DB1032CAC
:40024000EFD115B90320FFF78DFF104B4FF480721A8007221A7000220D490A704820023108701A700222033B1A700A4A137843F00103137038BD00BF804000400801004954
:40028000A146004022420040254200400440004006400040A243004008B500F0DDFB08BD38B572B62A4A137843F00403137000240CE0284D630019194A0011462A4408460B
:4002C00091882858FFF786FF0134E4B2082CF0D921494FF09040FFF747FF04211F48FFF779FF1F4A137843F0020313701032137843F0020313701B4C237843F04003237031
:40030000A2F58632513A137843F010031370082215491648FFF7C0FF082215491548FFF7BBFF154A137843F008031370134D61232B70FFF755FF81232B700122104B1A70A4
:40034000FFF72CFF0E2221460E48FFF7A5FF38BDE8460040BC0A00004C0000480076004003500140A04300408C000048025100409400004812510040224300400048004098
:4003800004000840B043004008B500F039FB03680C2B00D1FEE7FEE708B5104E104D16E029686B68AC68002204E051F8040B43F8040B0432A242F8D1E868002203E00021B9
:4003C00043F8041B04328242F9D11035013E002EE6D100F01BFBFFF793FEFEE701000000180B000008B5114A114B1A60114A136843F40073136000230AE0032B03D80E4A91
:4004000052F8231000E00D490D4A42F8231001332F2BF2D90B4B1A780B4B1A70084A0B4B1A60FFF73DFF00F091F908BD0004FA050CED00E014ED00E0000000008903000048
:400440000080FF1FBC760040C080FF1F08ED00E0084A137843F0010313701032137843F00103137002F64D32137843F001031370704700BFA3430040014B1870704700BF79
:40048000034F0040014B1878704700BF034F0040014B1880704700BF044F0040014B1880704700BF064F004008B5164A137803F0010313700232137803F0FC031370124B37
:4004C0001A7802F0CF021A701A7842F030021A701A7802F0F0021A701A7842F00F021A700A4A137843F00103137040F23F40FFF7CFFF40F23F40FFF7D1FF0820FFF7BCFFE0
:4005000008BD00BF004F00400B4F0040014F004008B5054B1B7823B9FFF7C6FF0122024B1A70FFF795FF08BD2AC1FF1F044A137803F0BF03800100F0400018431070704724
:4005400010510040024B1878C0F38010704700BF1151004070B54FF4804341F6FF720121084600F073F80C4E354605F8040B00F07DF90246094C20700123102100F090F9C2
:4005800045F68232A9B2207800F09EF92178307800F03EF970BD00BF2CC1FF1F80C0FF1F08B500F0AFF8034B1B78FF2B01D1FFF7D1FF08BD80C0FF1F08B50121044B18783D
:4005C00000F0DEF800F0B4F800F05EF808BD00BF2CC1FF1F08B5054B1B7D23B9FFF7E0FF0122024B1A75FFF7E7FF08BD2CC1FF1F38B500F00F05C0F30714B0F57F6F02D996
:40060000002000F06FF9FF2C08D0002318E00E4A1A44FF2111710133DBB200E000230F2BF5D938BDC5F11002934203DA064A1A44147103E0044A1A44611C11710133DBB20F
:400640000F2BEFD938BD00BF2CC1FF1FF0B583B016461F460B4D00242C700194009423460A460146204600F0DFF83A463146287800F0B4F80221287800F09EF8287803B0E3
:40068000F0BD00BF81C0FF1F054A137843F0040313701032137843F004031370704700BFA8430040054B1A7802F0FD021A701A7800F0020010431870704700BF28580040BB
:4006C000064B1B78C3F3810303F19243063393F82831DBB2024A1370704700BF285800400A46004008B5064B1A7802F0F3021A701A7800F00C0010431870FFF7E1FF08BDBF
:400700002858004008B50023084A13700132137002F26E22137843F0080313700420FFF7E1FF0220FFF7BEFF08BD00BF28580040054A137843F0010313701032137843F017
:4007400001031370704700BFA24300400B4A7F2313708021517007E0DA0002F1804202F5F042013BDBB21370002BF5D1DB0003F1804303F5F04300221A70704784C0FF1F1D
:40078000172815D831B103010A495A5C42F020025A5405E0030107495A5C02F0DF025A540001044A835C43F00103835400207047012070471070004017280BD80001064A8E
:4007C000835C03F0F103490001F00E011943815400207047012070471070004041F6FF73994201D14FF4005141F6FF739A4201D14FF40052172808D8C00000F1804000F5EF
:40080000EC408180C280002070470120704700BF172805D8034B03EB0010417200207047012070471070004017281BD810B4C00000F1804404F5EC44D201D2B201F07F01F5
:40084000114321709DF804201201D2B203F00F03134363709DF8083003F00F03A3700020E07001E00120704710BC704710B500F0BFF80A4B5B78182B0BD9084A1478013BAF
:400880005370E30003F1804303F5F0431B78137000E0FF2400F0B0F8204610BD84C0FF1F10F0800F0CD111F4704F0BD1C00000F1804000F5F04001808270C370002070474B
:4008C000012070470120704710F0800F08D1C00000F1804000F5F0408180C280002070470120704701BE704710B5044605E0084B186800F075F8A4F50044B4F5004FF6D81B
:40090000034B586800FB04F000F06AF810BD00BF8CC0FF1F024B1B68C3F88400704700BF08ED00E04001C0B2014B1870704700BF11E400E04FF40032014B1A60704700BF95
:4009400000E100E04FF40032014B1A60704700BF80E100E010B50446FFF7F4FF2046FFF7D9FF0720FFF7DEFFFFF7E4FF10BD00BF084A137843F060031370A2F5A652133A67
:40098000137843F0010313701032137843F001031370704777580040054B1A7802F0FC021A701A7800F0030010431870704700BF5858004008B50120FFF7EEFF08BD00BF3E
:4009C00008B5054B1B7823B90122034B1A70FFF7F1FFFFF7CDFF08BD41C1FF1F000000000230800803D000BF01380046FCD17047EFF3108072B6704780F31088704700BFD2
:400A0000014B1868704700BFFCC0FF1F0E4B70B51E460E4C0025E41AA410A54204D056F8253098470135F8E700F064F8084B094C1E46E41AA4100025A54204D056F82530A8
:400A400098470135F8E770BD000B0000000B0000000B0000080B000010B5431E0A44914204D011F8014B03F8014FF8E710BD03460244934202D003F8011BFAE770470000D5
:400A8000000000000E10270F4E0E7F0DBE0C060C5A0BB60A1D0A8C0902098108060893072607C0065F060306AD055B050E05C604810440040304CA0393036003004F00408C
:400AC0000C00205100405000C05100401000F0510040100000000140001000140140000800400140000A004C014000020050014020004300F8B500BFF8BC08BC9E467047BC
:400B00004D000000E5030000F8B500BFF8BC08BC9E46704729000000280B0000C880FF1F38400000480000000000000058AEFF1FE8ADFF1FE080FF1F28C1FF1F0A00000019
:400B4000380030002600190014001C002000150010000C000A0009000400FFFF020004000100FBFFF2FFE8FFE6FFEDFFEEFFEBFFEAFFEEFFF4FFF4FFEDFFECFFF1FFF5FF40
:400B8000F4FFF2FFF2FFF5FFF7FFF4FFF2FFEEFFECFFECFFEBFFE9FFEBFFEEFFF3FFF9FFFDFF0300090013001E0029003300370033002A001E001A001B001C001B00140075
:400BC0000D000B000A0006000300020003000100FEFFF8FFEBFFE2FFE7FFEFFFEDFFECFFEBFFF2FFF5FFF2FFEDFFEFFFF4FFF7FFF3FFF0FFF3FFF5FFF6FFF3FFEFFFEDFF4F
:400C0000ECFFEBFFEAFFEAFFECFFF0FFF6FFFAFFFFFF06000F00190023002C0032003500300028001D0015001C00200016000F000B000A0009000400000002000400FFFF52
:400C4000FBFFF3FFE7FFE5FFEDFFF1FFEDFFECFFEDFFF3FFF6FFEFFFECFFF0FFF4FFF5FFF2FFF1FFF4FFF5FFF4FFF0FFEEFFEDFFECFFEAFFE9FFEBFFEEFFF3FFF8FFFDFF8E
:400C80000200090012001B0025002F00360037002F0021001700190021001D0013000C000B000A0007000100000004000200FEFFF6FFECFFE2FFE6FFEEFFEFFFECFFEBFFE8
:400CC000F0FFF7FFF4FFEDFFEEFFF4FFF7FFF4FFF1FFF2FFF6FFF7FFF4FFEFFFECFFEDFFEDFFEAFFE9FFEBFFF0FFF6FFFBFF000007000E001800210027002C002F0031005D
:400D0000300026001500130021001B0010000B000A000B0005000000010003000300FBFFF1FFE3FFE1FFEDFFF2FFEEFFE7FFEBFFF6FFF8FFF1FFEDFFF1FFF8FFF7FFF1FFE2
:400D4000F2FFF5FFF8FFF5FFF1FFEDFFEDFFEDFFEBFFE9FFEAFFEDFFF2FFF8FFFCFF010007000F001A0024002F00370038003200230019001A001F001E0014000E000A0081
:400D8000090008000200010004000300FEFFF6FFEAFFE3FFE7FFF0FFF1FFE9FFE8FFF0FFFAFFF6FFEEFFEDFFF5FFF9FFF6FFF1FFF0FFF6FFF8FFF4FFEFFFEDFFEEFFECFFC0
:400DC000EAFFE9FFEBFFF0FFF7FFF9FFFFFF04000C0017001E0027002C0032003100300029001A0014001A001B0011000D000900080007000200010003000300FBFFF1FF7D
:400E0000E4FFDFFFEAFFF4FFF0FFE8FFE9FFF3FFFAFFF2FFECFFF1FFF8FFF7FFF3FFF1FFF5FFF8FFF7FFF1FFEEFFEDFFEEFFECFFE9FFE9FFEDFFF1FFF6FFFBFFFFFF0500B1
:400E40000D0016001F002C0034003900350029001900160021001F0016000F000A00090008000300020004000400FFFFF6FFE9FFE1FFE6FFEFFFF1FFEBFFE8FFF0FFFBFF45
:400E8000F6FFEEFFEFFFF6FFF9FFF6FFF1FFF2FFF6FFF7FFF4FFF0FFEDFFEDFFEDFFEAFFE8FFE9FFEEFFF5FFF9FFFDFF0200090012001A0023002C00340033002F0027003E
:400EC0001D0017001A001B0015000D000A00070006000200020003000200FCFFF2FFE5FFE0FFEBFFF4FFF1FFEBFFECFFF6FFFBFFF4FFECFFF1FFF8FFF7FFF2FFF0FFF4FF79
:400F0000F7FFF5FFF1FFEEFFEEFFEEFFEDFFE9FFE9FFECFFF1FFF6FFF9FFFDFF02000B0015001F002A003500390035002B001C0015001F00200019000F000B000A000900A1
:400F400004000200040005000000F7FFECFFE1FFE2FFF0FFF2FFEAFFE8FFEFFFFBFFF9FFEFFFEEFFF6FFF9FFF7FFF0FFF1FFF6FFF7FFF5FFF0FFEDFFEEFFEDFFEBFFE8FF2F
:400F8000EAFFEEFFF4FFF8FFFAFF000007000E00170020002B0035003800330029001B0016001E00200016000D000900080007000300010004000400FDFFF2FFE4FFDFFFD4
:400FC000EAFFF5FFF1FFE8FFE7FFF5FFFAFFF2FFEDFFEEFFF7FFF8FFF3FFF0FFF5FFF9FFF8FFF3FFEFFFEEFFEEFFEDFFE9FFE8FFEAFFF0FFF4FFF8FFFCFF020009001100A1
:401000001900250030003700350030002400190018001C001B0011000D000800070006000300020004000200FAFFEEFFE0FFE2FFF1FFF7FFEEFFE6FFEDFFFAFFFCFFF1FFAE
:40104000EDFFF3FFFBFFF8FFF1FFF0FFF8FFF9FFF6FFF0FFEEFFEFFFEEFFECFFE8FFE8FFECFFF2FFF7FFFAFFFFFF06000D0015001B0025003000350034002D00230016003E
:4010800018001D0018000F000A00090006000400020002000400FFFFF4FFE8FFDFFFE7FFF6FFF4FFE7FFE6FFF0FFFDFFF8FFEDFFEFFFF7FFFBFFF6FFF1FFF3FFF9FFF8FFEE
:4010C000F4FFF0FFEEFFEFFFEEFFEAFFE7FFE9FFEFFFF4FFF8FFFCFF02000900100018001D0028003100350032002A001E00160017001B0015000D000A00070006000400DF
:40110000020004000300FBFFEEFFE2FFDEFFEDFFF7FFF2FFE9FFEBFFF7FFFCFFF2FFEBFFF1FFF9FFF8FFF1FFF1FFF6FFFAFFF8FFF2FFEFFFEFFFF0FFEDFFE9FFE8FFEBFF8B
:40114000F0FFF5FFF9FFFDFF04000A0012001A0022002D00340035002F002400190017001E001A0011000D000700060005000300030004000000F7FFE9FFDFFFE5FFF5FF1D
:40118000F8FFE9FFE8FFEDFFFAFFF9FFF0FFEFFFF6FFFCFFF6FFF1FFF2FFF8FFF9FFF5FFF1FFEFFFEFFFF0FFECFFE8FFEAFFEEFFF3FFF7FFFAFFFFFF06000D0015001C0080
:4011C00027003100320031002B002100170018001A00160010000B00070005000300020003000300FCFFF2FFE5FFDDFFEAFFF7FFF6FFE8FFEAFFF6FFFDFFF6FFEDFFF1FF45
:40120000FAFFF9FFF3FFF0FFF5FFF9FFF7FFF3FFEFFFEEFFF0FFEEFFEAFFE9FFEBFFF0FFF5FFF7FFFBFF020008000F0017001F002B003300340030002600160014001E0044
:40124000190011000D000900080005000200030005000100F8FFEBFFDFFFE1FFF3FFF5FFEAFFE4FFEDFFF9FFFBFFF1FFEDFFF5FFFDFFF8FFF2FFF3FFF8FFFAFFF5FFF2FF6C
:40128000EFFFF0FFF0FFEDFFE9FFE9FFEEFFF3FFF7FFF9FFFEFF04000C0013001A0024002D00320033002F002200180017001B00170011000B000800070004000200040002
:4012C0000500FFFFF5FFE7FFDDFFE6FFF7FFF5FFEAFFE8FFF1FFFCFFF7FFEFFFF0FFF9FFFAFFF5FFEFFFF4FFFAFFF9FFF4FFF0FFEFFFF1FFEFFFEBFFE9FFEAFFEFFFF4FFD7
:40130000F7FFFBFF01000900100017001D0025003000340030002A001D00140019001A0016000D000A00060005000300040004000200FBFFEFFFE1FFE0FFEFFFF9FFF0FF67
:40134000E7FFE9FFF8FFFAFFF1FFECFFF3FFFAFFF9FFF3FFF0FFF7FFFAFFF7FFF2FFF0FFF1FFF1FFEEFFEAFFE9FFEEFFF2FFF6FFF8FFFDFF04000B00110018001F00280068
:40138000310032002D0026001B0016001800190013000C000900070004000300030003000100F9FFEAFFDEFFE5FFF5FFF8FFE9FFE7FFECFFFAFFF8FFF0FFEEFFF8FFFCFFD4
:4013C000F6FFF1FFF2FFF8FFFAFFF5FFF1FFEFFFF2FFF2FFEDFFE9FFEBFFEFFFF4FFF7FFFAFF000006000D0014001A0021002B00300031002B00220016001500190018004E
:4014000010000A00070005000400030004000300FDFFF2FFE2FFDCFFEDFFF8FFF2FFE9FFE7FFF5FFFEFFF6FFEEFFF2FFFBFFFAFFF3FFF2FFF4FFFAFFF9FFF3FFEFFFF0FFE0
:40144000F2FFF1FFECFFEBFFEDFFF1FFF6FFF7FFFCFF02000A00110018001C0023002A002D002C002A00210017001300160015000E00090005000400030001000200020035
:40148000FCFFF1FFE4FFDEFFEAFFF5FFF0FFEAFFEBFFF5FFFBFFF5FFF2FFF5FFF9FFF7FFF3FFF1FFF3FFF6FFF4FFF0FFEEFFEEFFF0FFF1FFEFFFF1FFF6FFFCFF00000300F8
:4014C00008000D0014001A001C001E002100220021001F001B0017001500120010000F000B000600030002000000FEFFFBFFF9FFF4FFF0FFF1FFF3FFF5FFF6FFF4FFF2FFDE
:40150000F5FFF7FFF6FFF4FFF2FFF2FFF1FFF0FFEEFFEFFFF0FFF1FFF0FFF0FFF2FFF4FFF6FFF7FFF8FFFCFF0100040007000A000D0011001500160019001A001A001900FA
:40154000160014001200110011000F000B00090009000700040002000000FFFFFCFFF9FFF6FFF5FFF5FFF4FFF4FFF4FFF3FFF4FFF5FFF4FFF3FFF1FFF1FFF2FFF1FFF0FFBF
:40158000F0FFF1FFF2FFF2FFF2FFF4FFF6FFF8FFFAFFFDFF00000300060008000A000D000F0011001200130013001300130012001200110010000F000E000C000B0008007E
:4015C0000800050002000000FEFFFDFFFBFFFAFFF8FFF7FFF6FFF6FFF5FFF4FFF3FFF3FFF3FFF3FFF2FFF1FFF1FFF2FFF2FFF2FFF3FFF5FFF6FFF7FFF8FFF9FFFBFFFDFF10
:40160000FEFF000002000400060008000A000C000E000F001000110011001100100010000F000E000D000B000A000800070006000500030002000000FFFFFEFFFCFFFAFFB6
:40164000F8FFF7FFF6FFF5FFF4FFF3FFF2FFF2FFF2FFF1FFF1FFF2FFF3FFF4FFF4FFF6FFF7FFF9FFFAFFFAFFFBFFFDFFFFFF00000100030004000500070008000A000B0039
:401680000D000D000E000E000E000E000E000E000D000C000B000900080006000500040002000100FFFFFEFFFDFFFCFFFBFFFAFFF8FFF7FFF6FFF6FFF5FFF4FFF3FFF3FFEE
:4016C000F3FFF3FFF3FFF3FFF4FFF6FFF7FFF9FFFAFFFCFFFDFFFDFFFEFFFFFF0000010002000300040005000600080009000A000C000C000D000D000D000D000D000C00D0
:401700000B000A000800070006000400030002000100FFFFFEFFFDFFFBFFFAFFF9FFF8FFF7FFF7FFF6FFF6FFF6FFF6FFF5FFF6FFF6FFF6FFF6FFF7FFF8FFF9FFFAFFFBFF3C
:40174000FCFFFCFFFDFFFEFFFFFF00000100020002000400050006000700080009000A000B000B000B000B000B000B000A000A0009000700060005000400020001000000CE
:40178000FFFFFEFFFDFFFCFFFBFFFAFFF9FFF9FFF8FFF7FFF7FFF7FFF7FFF7FFF7FFF7FFF7FFF8FFF8FFF9FFFAFFFBFFFBFFFCFFFDFFFDFFFEFFFFFFFFFF000001000200EB
:4017C0000300040005000700080009000A000B000B000B000A000A0009000900080007000600050004000200010000000000FFFFFEFFFDFFFCFFFBFFFBFFFAFFFAFFF9FF83
:40180000F8FFF8FFF8FFF8FFF9FFF9FFF9FFFAFFFAFFFAFFFAFFFBFFFBFFFCFFFDFFFDFFFEFFFEFFFFFF0000010001000200030004000500050006000700080009000900E5
:40184000090009000900080007000600060005000400030001000000FFFFFFFFFEFFFEFFFDFFFDFFFCFFFCFFFBFFFBFFFBFFFAFFFAFFFAFFFAFFFAFFFAFFFAFFFAFFFAFF92
:40188000FAFFFAFFFBFFFCFFFDFFFDFFFEFFFEFFFFFF00000000010002000200030003000400050006000600070008000800080008000700070006000500040003000300E7
:4018C000020001000000FFFFFFFFFEFFFEFFFDFFFDFFFDFFFCFFFCFFFCFFFCFFFBFFFBFFFBFFFBFFFBFFFBFFFCFFFCFFFCFFFCFFFBFFFBFFFCFFFDFFFEFFFEFFFFFF000064
:4019000000000100010002000200030003000300040005000500050006000600060006000600050005000400030002000200010000000000FFFFFEFFFEFFFEFFFEFFFEFF62
:40194000FDFFFDFFFDFFFDFFFDFFFCFFFCFFFCFFFCFFFCFFFCFFFCFFFCFFFCFFFDFFFDFFFDFFFDFFFDFFFEFFFFFF00000000000001000100020002000200030003000300B0
:4019800004000400040005000500050005000500040004000300030002000100010000000000FFFFFEFFFEFFFEFFFEFFFEFFFEFFFEFFFDFFFDFFFDFFFDFFFDFFFDFFFDFF23
:4019C000FDFFFDFFFDFFFDFFFDFFFEFFFEFFFEFFFEFFFEFFFFFF000000000100010001000200020002000200030002000200030003000300030003000300040004000300DD
:401A00000300030002000100010000000000FFFFFFFFFEFFFEFFFEFFFEFFFEFFFEFFFEFFFEFFFEFFFEFFFEFFFEFFFDFFFDFFFDFFFDFFFDFFFDFFFEFFFEFFFEFFFFFFFFFFE9
:401A4000FFFFFFFF0000010001000200020002000200020002000200020002000200020002000200020002000300030003000300020002000100010000000000FFFFFFFF3C
:401A8000FEFFFEFFFEFFFEFFFEFFFEFFFEFFFEFFFEFFFEFFFEFFFEFFFEFFFEFFFEFFFEFFFEFFFEFFFFFFFFFFFFFF000000000000000000000100010001000100020002005A
:401AC00002000200020002000100010001000100010001000100020002000200020002000100010000000000FFFFFFFFFFFFFEFFFEFFFEFFFEFFFEFFFEFFFEFFFFFFFFFFEA
:401B0000FFFFFFFFFFFFFFFFFFFFFEFFFFFFFFFFFFFFFFFFFFFF000000000000000000000000010001000100010002000200020002000100010001000100010001000000AA
:401B4000000001000100010002000200020001000100010000000000FFFFFFFFFFFFFEFFFEFFFEFFFEFFFEFFFFFFFFFFFFFFFFFFFFFFFFFFFFFFFFFFFFFFFFFFFFFF000084
:401B80000000000000000100010001000100000001000100010001000100010001000100010001000000000000000000000000000000000000000100010001000100010012
:401BC000010000000000FFFFFFFFFFFFFFFFFFFFFEFFFEFFFEFFFFFFFFFFFFFFFFFF00000000000000000000000000000000000000000000010001000100010001000100F9
:401C00000100010001000100010001000100010000000000000000000000FFFFFFFFFFFFFFFF0000000000000100010001000100010000000000FFFFFFFFFFFFFFFFFFFFA9
:401C4000FFFFFFFFFFFFFFFFFFFF0000000000000000000000000000000000000000010001000100010001000100010001000100010001000100010001000100000000005F
:401C80000000FFFFFFFFFFFFFFFFFFFFFEFFFFFFFFFFFFFF0000000000000100010000000000000000000000FFFFFFFFFFFFFFFFFFFFFFFF00000000000000000000000041
:401CC00000000000000000000000010001000100010001000100010001000100010001000100010000000000000000000000FFFFFFFFFFFFFFFFFEFFFEFFFEFFFEFFFEFFEE
:401D0000FFFFFFFF000000000000010001000100010000000000000000000000000000000000000000000000000000000000000000000000000000000000010001000100A0
:401D400001000100010001000100010001000100010000000000000000000000FFFFFFFFFFFFFEFFFEFFFEFFFEFFFEFFFEFFFEFFFFFFFFFF00000000010001000100010075
:401D80000100010000000000000000000000000000000000000000000000000001000100010001000000000001000100010001000100010001000100010001000000010012
:401DC0000000000000000000FFFFFFFFFFFFFFFFFEFFFEFFFEFFFEFFFEFFFEFFFEFFFFFFFFFF000000000000010001000100010001000100000000000000000000000000FE
:401E000000000000000000000000000001000100010001000100010001000100010001000100010001000100010001000000000000000000FFFFFFFFFFFFFFFFFFFFFEFF9F
:401E4000FEFFFEFFFEFFFEFFFEFFFEFFFEFFFFFFFFFF0000000000000100010001000100010000000000000000000000000000000000000001000100010001000100010070
:401E800001000100010001000100010001000100010001000100000000000000000000000000FFFFFFFFFFFFFFFFFFFFFFFFFEFFFEFFFEFFFEFFFEFFFEFFFEFFFFFFFFFF3C
:401EC000FFFF0000000001000100010001000100010000000000000000000000000000000000010001000100010001000100010001000100010001000100010001000100CF
:401F000001000100000000000000000000000000FFFFFFFFFFFFFFFFFFFFFFFFFFFFFFFFFEFFFEFFFEFFFEFFFEFFFEFFFFFFFFFF00000000000001000100010001000100C0
:401F40000100010001000100010000000000000001000100010001000100010001000100010001000100010001000000000000000000000000000000000000000000FFFF51
:401F8000FFFFFFFFFFFFFFFFFFFFFEFFFEFFFEFFFEFFFEFFFEFFFEFFFFFFFFFFFFFF0000000000000100010001000100010001000100010001000100010001000100010038
:401FC0000100010001000100010001000100000000000000000000000000000000000000000000000000000000000000FFFFFFFFFFFFFFFFFFFFFFFFFFFFFEFFFEFFFEFFF1
:40200000FEFFFEFFFEFFFEFFFFFFFFFF000000000000010001000100010001000100010001000100010001000100010001000100010001000100010001000100000000009B
:402040000000000000000000000000000000000000000000FFFFFFFFFFFFFFFFFFFFFFFFFFFFFFFFFFFFFEFFFEFFFEFFFEFFFFFFFFFFFFFFFFFFFFFFFFFFFFFF000000008C
:402080000100010001000200020002000200010001000100010001000100010001000100010001000100010001000000000000000000000000000000000000000000000007
:4020C0000000FFFFFFFFFFFFFFFFFFFFFFFFFFFFFFFFFFFFFFFFFEFFFEFFFFFFFFFFFFFFFFFFFFFFFFFFFFFFFFFF00000000010001000100020002000200020002000200FB
:4021000002000200020001000100010001000100010001000100010000000000000000000000000000000000FFFFFFFF00000000FFFFFFFFFFFFFFFFFFFFFFFFFFFFFFFFA4
:40214000FFFFFFFFFEFFFEFFFEFFFFFFFFFFFFFFFFFFFFFFFFFFFFFF000000000100010002000200020002000200020002000200020002000200010001000100010001005D
:402180000100010001000000000000000000FFFFFFFF0000FFFFFFFFFFFFFFFFFFFFFFFFFFFFFFFFFFFFFFFFFFFFFFFFFFFFFFFFFFFFFFFFFFFFFFFFFFFFFFFFFFFFFFFF4C
:4021C000FFFFFFFFFFFF000000000000010001000200020002000200020002000200020002000200010001000100010001000100010001000100000000000000FFFFFFFFCA
:40220000FFFFFFFFFFFFFFFFFFFFFFFFFFFFFFFFFFFFFFFFFFFFFFFFFFFFFFFFFFFFFFFFFFFFFFFFFFFFFFFFFFFFFFFFFFFFFFFFFFFFFFFF000000000000010001000200CE
:40224000020002000200020002000200020002000200020001000100010001000100010001000000000000000000FFFFFFFFFFFFFFFFFFFFFFFFFFFFFFFFFFFFFFFFFFFF59
:40228000FFFFFFFFFFFFFFFFFFFFFFFFFFFFFFFFFFFFFFFFFFFFFFFFFFFFFFFFFFFFFFFFFFFFFFFF000000000000010001000200020002000200020002000200020002002E
:4022C000020001000100010001000100010000000000000000000000FFFFFFFFFFFFFFFFFFFFFFFFFFFFFFFFFFFFFFFFFFFFFFFFFFFFFFFFFFFFFFFFFFFFFFFFFFFFFFFFFE
:40230000FFFFFFFFFFFFFFFF000000000000000000000000000000000100010002000200020002000200020002000200020002000100010001000100010001000000000089
:40234000000000000000FFFFFFFFFFFFFFFFFFFFFFFFFEFFFEFFFFFFFFFFFFFFFFFFFFFFFFFFFFFFFFFFFFFFFFFFFFFFFFFF00000000000000000000000000000000000087
:4023800000000000000000000100010002000200020002000200020002000200020002000100010001000000000000000000000000000000FFFFFFFFFFFFFEFFFEFFFEFF13
:4023C000FEFFFEFFFEFFFFFFFFFFFFFFFFFFFFFFFFFFFFFFFFFFFFFFFFFFFFFF000000000000000000000000000000000000000000000000000000000100010002000200F6
:4024000002000200020002000200020001000100010001000000000000000000000000000000FFFFFFFFFFFFFEFFFEFFFEFFFEFFFEFFFEFFFFFFFFFFFFFFFFFFFFFFFFFFB0
:40244000000000000000FFFF00000000000000000000000000000000000000000000000000000000000000000100010002000200020002000200020001000100010001004C
:4024800001000000000000000000000000000000FFFFFFFFFFFFFFFFFEFFFEFFFEFFFEFFFEFFFEFFFFFFFFFFFFFFFFFFFFFF0000000000000000000000000000000000003F
:4024C0000000010001000100010000000000000000000000000000000100010001000100020002000100010001000100010001000000000000000000000000000000FFFFCC
:40250000FFFFFFFFFFFFFEFFFEFFFEFFFEFFFEFFFEFFFFFFFFFFFFFFFFFF0000000000000000000000000000000000000100010001000100010001000100000000000000B4
:4025400000000000000000000100010001000100010001000100010001000100010000000000000000000000FFFFFFFFFFFFFFFFFFFFFFFFFFFFFEFFFEFFFFFFFEFFFEFF6C
:40258000FFFFFFFFFFFFFFFF000000000000000000000000000000000100010001000100010001000100010001000000000000000000000000000000010001000100010016
:4025C000010001000100010000000000000000000000000000000000FFFFFFFFFFFFFFFFFFFFFFFFFFFFFFFFFFFFFFFFFFFFFFFFFFFFFFFFFFFF00000000000000000000F5
:40260000000000000000000001000100010001000100010001000100000000000000000000000000000000000000010001000100010001000000000000000000000000008D
:4026400000000000000000000000000000000000FFFFFFFFFFFFFFFFFFFFFFFFFFFFFFFFFFFFFFFF000000000000000000000000000000000000010001000100010000006A
:402680000100010001000000000000000000000000000000000000000000000001000100010000000000000000000000000000000000000000000000000000000000FFFF16
:4026C000FFFFFFFFFFFFFFFFFFFFFFFFFFFFFFFFFFFF00000000000000000000000000000000000000000100010001000000010001000100010000000000000000000000E5
:40270000000000000000000000000000010001000100000000000000000000000000000000000000FFFFFFFF0000000000000000FFFFFFFFFFFFFFFFFFFFFFFFFFFFFFFFAA
:40274000FFFF000000000000000000000000000000000000010001000100000000000000010001000100000000000000000000000000000000000000000000000000010054
:40278000000000000000000000000000000000000000000000000000000000000000FFFFFFFFFFFFFFFFFFFFFFFFFFFFFFFFFFFF0000000000000000010001000100000028
:4027C000000000000100010000000000000000000100010000000000000000000000000000000000000000000000000000000000000000000000000000000000FFFF0000D7
:40280000FFFFFFFF000000000000000000000000FFFFFFFFFFFFFFFFFFFFFFFFFFFF00000000000000000000010000000000000000000000010000000000000000000100A7
:402840000100010000000000000000000000000000000000000000000000000000000000000000000000000000000000000000000000000000000000000000000000000056
:40288000FFFFFFFFFFFFFFFFFFFFFFFFFFFF000000000000000001000100000000000000000000000000000000000000000001000100010000000000000000000000000021
:4028C000000000000000000000000000000000000000000000000000000000000000FFFFFFFFFFFF000000000000000000000000FFFFFFFFFFFFFFFFFFFFFFFFFFFF0000EC
:402900000000000000000100010001000000000000000000000000000000000000000100010000000000000000000000000000000000000000000000000000000000000092
:402940000000000000000000000000000000000000000000000000000000000000000000FFFFFFFFFFFFFFFFFFFFFFFF000000000000000000000000000000000000000063
:402980000000000000000000000000000000010000000000000000000000000000000000000000000000000001000100010001000000000000000000000000000000FFFF14
:4029C0000000000000000000000000000000000000000000FFFFFFFFFFFFFFFF000000000000000000000000000000000000000000000000000000000000000001000100DD
:402A00000000000000000000000000000000000000000000000000000100010001000000000000000000000000000000000000000000000000000000000000000000000093
:402A4000000000000000FFFFFFFF0000000000000000000000000000000000000000000000000000000000000000000000000000000000000000000000000000000000005A
:402A8000000000000100010001000100010001000000000000000000000000000000000000000000000000000000000000000000000000000000FFFFFFFF00000000000014
:402AC00000000000000000000000000000000000000000000000000000000000000000000000000000000000000000000000000000000000010001000100010001000000D1
:402B00000000000000000000000000000000000000000000000000000000000000000000000000000000FFFF00000000000000000000000000000000000000000000000097
:402B40000000000000000000000000000000000000000000000000000000000000000000000000000100010001000100010000000000000000000000000000000000000050
:402B8000000000000000000000000000FFFFFFFF0000FFFFFFFFFFFFFFFF000000000000000000000000000000000000000000000000000000000000000000000000000021
:402BC0000000000000000000000000000000000000000100010001000100000000000000000000000000000000000000000000000000000000000000000000000000FFFFD3
:402C0000FFFF0000FFFFFFFFFFFFFFFF000000000000000000000000000000000000000000000000000000000000000000000000000000000000000000000000000000009E
:402C4000000000000100010000000000000000000000000000000000000000000000000000000000000000000000FFFFFFFF0000FFFFFFFFFFFFFFFFFFFF00000000000060
:402C80000000000000000000000000000000000000000000000000000000000000000000000000000000000000000000000000000100000000000100010000000000000011
:402CC00000000000000000000000000000000000000000000000000000000000FFFFFFFFFFFFFFFFFFFFFFFF000000000000000000000000000000000000000000000000E0
:402D00000000000000000000000000000000000000000000000000000000000000000000000001000000000000000000000000000000000000000000000000000000000092
:402D40000000000000000000FFFFFFFFFFFFFFFFFFFFFFFFFFFFFFFF0000000000000000000000000000000000000000000000000000000000000000000000000000000063
:402D80000000000000000000000000000000000000000000010001000000000000000000000000000000000000000000000000000000000000000000FFFFFFFFFFFFFFFF19
:402DC000FFFFFFFFFFFFFFFFFFFF000000000000000000000000000000000000000000000000000000000000000000000000000000000000000000000000000000000000DD
:402E00000000010001000000000000000000000000000000000000000000000000000000000000000000FFFFFFFFFFFFFFFFFFFFFFFFFFFFFFFFFFFFFFFF000000000000A4
:402E4000000000000000000000000000000000000000000000000000000000000000000000000000000000000000000000000000010001000100010000000000000000004E
:402E800000000000000000000000000000000000000000000000FFFFFFFFFFFFFFFFFFFFFFFFFFFFFFFFFFFF00000000000000000000000000000000000000000000000024
:402EC00000000000000000000000000000000000000000000000000000000000000000000000010001000000000000000000000000000000000000000000000000000000D0
:402F000000000000FFFFFFFFFFFFFFFFFFFFFFFFFFFFFFFFFFFFFFFFFFFF0000000000000000000000000000000000000000000000000000010001000100010000000000A3
:402F400000000000000000000000000000000000010000000000000000000000000000000000000000000000000000000000000000000000FFFFFFFFFFFFFFFFFFFFFFFF5C
:402F8000FFFFFFFFFFFFFFFF000000000000000000000000000000000000000000000000000001000100010001000100010000000000000000000000000000000000000013
:402FC00000000000000000000000000000000000000000000000000000000000000000000000FFFFFFFFFFFFFFFFFFFFFFFFFFFFFFFFFFFFFFFF00000000000000000000E5
:40300000000000000000000000000000000000000000010001000100010001000000000000000000000000000000000000000000000000000000000000000000000000008B
:4030400000000000000000000000000000000000FFFFFFFFFFFFFFFFFFFFFFFFFFFFFFFFFFFFFFFF0000000000000000000000000000000000000000000000000000010063
:40308000010001000100010001000100000000000000000000000000000000000000000000000000000000000000000000000000000000000000000000000000000000000A
:4030C000FFFFFFFFFFFFFFFFFFFFFFFFFFFFFFFFFFFFFFFF0000000000000000000000000000000000000000000000000000010001000100010001000100010000000000DD
:4031000000000000000000000000000000000000000000000000000000000000000000000000000000000000000000000000FFFFFFFFFFFFFFFFFFFFFFFFFFFFFFFFFFFFA1
:40314000FFFF00000000000000000000000000000000000000000000000000000000010001000100010001000100000000000000000000000000000000000000000000004B
:40318000000000000000000000000000000000000000000000000000000000000000FFFFFFFFFFFFFFFFFFFFFFFFFFFFFFFFFFFFFFFF000000000000000000000000000023
:4031C00000000000000000000000000000000000000001000100010000000000000000000000000000000000000000000000000000000000000000000000000000000000CC
:40320000000000000000FFFFFFFFFFFFFFFFFFFFFFFFFFFFFFFFFFFFFFFFFFFFFFFFFFFF0000000000000000000000000000000000000000000000000000000000000000A8
:40324000000000000000000000000000000000000000000000000000000000000000000000000000000000000000000000000000000000000000000000000000000000004E
:40328000000000000000000000000000000000000000000000000000000000000000000000000000000000000000000000000000000000000000000000000000000000000E
:4032C00000000000000000000000000000000000000000000000000000000000000000000000000000000000000000000000000000000000000000000000000000000000CE
:40330000000000000000000000000000000000000000000000000000000000000000000000000000000000000000000000000000000000000000000000000000000000008D
:40334000000000000000000000000000000000000000000000000000000000000000000000000000000000000000000000000000000000000000000000000000000000004D
:40338000000000000000000000000000000000000000000000000000000000000000000000000000000000000000000000000000000000000000000000000000000000000D
:4033C00000000000000000000000000000000000000000000000000000000000000000000000000000000000000000000000000000000000000000000000000000000000CD
:40340000000000000000000000000000000000000000000000000000000000000000000000000000000000000000000000000000000000000000000000000000000000008C
:40344000000000000000000000000000000000000000000000000000000000000000000000000000000000000000000000000000000000000000000000000000000000004C
:40348000000000000000000000000000000000000000000000000000000000000000000000000000000000000000000000000000000000000000000000000000000000000C
:4034C00000000000000000000000000000000000000000000000000000000000000000000000000000000000000000000000000000000000000000000000000000000000CC
:40350000000000000000000000000000000000000000000000000000000000000000000000000000000000000000000000000000000000000000000000000000000000008B
:40354000000000000000000000000000000000000000000000000000000000000000000000000000000000000000000000000000000000000000000000000000000000004B
:40358000000000000000000000000000000000000000000000000000000000000000000000000000000000000000000000000000000000000000000000000000000000000B
:4035C00000000000000000000000000000000000000000000000000000000000000000000000000000000000000000000000000000000000000000000000000000000000CB
:40360000000000000000000000000000000000000000000000000000000000000000000000000000000000000000000000000000000000000000000000000000000000008A
:40364000000000000000000000000000000000000000000000000000000000000000000000000000000000000000000000000000000000000000000000000000000000004A
:40368000000000000000000000000000000000000000000000000000000000000000000000000000000000000000000000000000000000000000000000000000000000000A
:4036C00000000000000000000000000000000000000000000000000000000000000000000000000000000000000000000000000000000000000000000000000000000000CA
:403700000000000000000000000000000000000000000000000000000000000000000000000000000000000000000000000000000000000000000000000000000000000089
:403740000000000000000000000000000000000000000000000000000000000000000000000000000000000000000000000000000000000000000000000000000000000049
:403780000000000000000000000000000000000000000000000000000000000000000000000000000000000000000000000000000000000000000000000000000000000009
:4037C00000000000000000000000000000000000000000000000000000000000000000000000000000000000000000000000000000000000000000000000000000000000C9
:403800000000000000000000000000000000000000000000000000000000000000000000000000000000000000000000000000000000000000000000000000000000000088
:403840000000000000000000370034002800170015001F002100190011000D000B000A0005000200030004000200FDFFF8FFEEFFE8FFE9FFEEFFEAFFE9FFF0FFF3FFF2FFAE
:40388000F0FFECFFF1FFF5FFF3FFF2FFF2FFF3FFF5FFF5FFF2FFEFFFEEFFECFFEAFFE9FFEAFFEDFFF2FFF6FFFCFF02000A0011001A002200290032000000000000000000AA
:4038C0000000000000000000FFFF00000100000000000100010000000000000000000000000000000000010001000100010000000000000000000000FFFFFFFF0000FFFFC9
:40390000FFFFFFFFFFFF0000000000000000000000000000000001000000000000000000000000000000000000000000010000000000000000000000000001000100010088
:403940000000FEFFFFFF00000100000000000100010000000000FFFFFFFFFFFF0000FFFFFFFFFFFF0000000001000100020001000000FEFFFFFF010002000000FFFF010053
:4039800002000100FFFFFEFFFEFF0000020001000000010001000000FFFF000000000100010002000000000001000100FFFFFEFFFFFFFFFF00000100020000000100020006
:4039C00001000000FEFFFCFFFEFF02000000FDFFFEFF0100020000000000020000000000FFFFFFFF000001000100020003000100FFFFFDFFFCFFFDFFFDFFFFFF01000200DF
:403A00000100020004000000FCFFFEFF01000000000005000100010003000200010001000000000000000000FFFF0100030003000000FFFF0000FEFFFDFF01000000FDFF7F
:403A4000FCFFFCFFFDFF0000020002000200FFFF0100020001000300020001000300040003000100FDFFF8FFFAFFFDFF02000700050005000400FFFFFCFFF8FFF5FFF8FF61
:403A8000FDFFFFFFFFFFFFFFFFFFFDFFFBFFFCFFFDFFFDFFFFFF0200030001000000FFFF0000FFFFFFFFFFFF010004000500050004000400040003000300030004000600FF
:403AC000060005000400030001000000FFFFFEFF00000100000000000000FFFFFEFFFDFFFCFFFBFFFCFFFDFFFDFFFEFFFFFFFFFFFFFFFEFFFDFFFDFFFCFFFEFFFFFFFFFFF8
:403B00000000000000000000FFFFFFFF000001000200020003000400050004000300020002000300020002000100010003000400020001000000FFFF0000FFFFFEFFFFFF63
:403B40000000000001000000FFFFFFFFFEFFFDFFFDFFFCFFFEFFFFFFFFFFFDFFFDFFFCFFFCFFFCFFFCFFFCFFFDFFFDFFFEFFFEFFFEFFFEFFFEFFFEFFFDFFFDFFFEFFFEFFA8
:403B8000FFFFFFFF000001000200030004000500070007000700090009000A000A0009000800090008000700060005000400040003000200FFFFFEFFFEFFFCFFFBFFFBFF97
:403BC000FAFFFBFFFBFFFAFFF9FFF9FFF9FFF9FFFAFFF9FFFAFFFAFFFAFFF9FFF8FFF8FFF7FFF8FFF9FFF9FFFAFFFCFFFDFFFEFFFFFF010003000500070008000A000B0048
:403C00000C000C000C000D000C000D000D000C000A0005000300030002000200020001000100FEFFFAFFF9FFFAFFFAFFFBFFFBFFFBFFFBFFFBFFFAFFF8FFF8FFF8FFF8FF6D
:403C4000F9FFF8FFF8FFF9FFF9FFF8FFF6FFF6FFF7FFF8FFF9FFF9FFFAFFFBFFFCFFFDFFFFFF00000200050007000A000C000F001200140013001300130013001000100003
:403C800010000D000A00070006000600060005000100FFFFFDFFFBFFF8FFF6FFF6FFF7FFF9FFF7FFF5FFF4FFF5FFF6FFF5FFF5FFF5FFF6FFF7FFF6FFF6FFF6FFF5FFF4FFA8
:403CC000F2FFF2FFF2FFF2FFF3FFF4FFF6FFF7FFF8FFFBFFFDFF0000030008000E0014001B002100250025001F0017000E000C0015001A001900130008000200FBFFF5FFED
:403D0000F4FFF7FFFDFF0100FFFFF8FFEFFFEEFFF1FFF2FFF1FFF2FFF6FFFAFFFAFFF7FFF6FFF6FFF6FFF5FFF3FFF2FFF1FFF1FFF0FFEFFFEEFFEEFFEFFFF1FFF4FFF5FF1C
:403D4000F9FFFDFF000005000B0011001800210029002E002F0027001A000D0015001A00180010000700040005000300000002000A000D000C000300F6FFE7FFDDFFDFFFFA
:403D8000EEFFF4FFF2FFF1FFF2FFF3FFF0FFECFFEFFFFAFFFBFFF7FFF4FFF5FFF6FFF5FFF1FFEBFFE8FFE9FFEBFFEEFFEFFFF2FFF5FFF8FFF9FFFBFF0000080011001D006C
:403DC0002B0038003D00380026001500120019001A0019000E000A0009000300FEFFFEFF0300070009000400FDFFF3FFE5FFE0FFE8FFE7FFEBFFF1FFEEFFEFFFF0FFEFFF0D
:403E0000F4FFF9FFFBFFFDFFFEFFFBFFF8FFF4FFF0FFECFFE6FFE4FFE3FFE5FFE9FFEDFFF0FFF3FFF5FFFAFF04001000200032003E00450043002F001600130022002A00E6
:403E400019000D000F000A0001000000FCFFFAFFFEFF010000000300FDFFF2FFE5FFDBFFE4FFEBFFF5FFF1FFECFFEFFFF2FFEDFFEDFFF2FFFAFFFBFFFAFFF9FFF8FFFBFF49
:403E8000F6FFEEFFE8FFE5FFE6FFE7FFE7FFE9FFEDFFF3FFF8FFFCFF02000A0013001F002900360042004000360023001000180028001D0010000F000D000300FAFFF9FFE7
:403EC000F8FFFFFF03000100FFFFFAFFF1FFDEFFDCFFEDFFEFFFF1FFECFFEAFFF2FFF3FFEDFFF0FFF5FFFEFF0100FCFFF7FFF8FFF9FFF3FFECFFE4FFE0FFDFFFE2FFE1FFBE
:403F0000E5FFECFFF7FFFFFF060011001F002C003B0041004300370029001C001B0025002400160011000B0007000000FCFFF6FFF7FFFCFFFFFFF9FFF6FFEDFFE0FFDBFF13
:403F4000E6FFF0FFF1FFF2FFEFFFF2FFF3FFEFFFEDFFF1FFF8FFFBFFF8FFF7FFFBFFFCFFF8FFF2FFEBFFE8FFE7FFE5FFE2FFE3FFE7FFEFFFF7FFFDFF05000D001B002800BD
:403F80003700410043003E002A00170015002400260016000F000D000B00FFFFFBFFF6FFF8FFFDFFFFFFFCFFFBFFF5FFEBFFE0FFE4FFEFFFEEFFEFFFEEFFF1FFF5FFF0FF2F
:403FC000EAFFF1FFF8FFF8FFF8FFF7FFF6FFF8FFF6FFF2FFEDFFE8FFE4FFE3FFE2FFE2FFE6FFEEFFF6FFFEFF0A001800250030003B003F003E003800290019001B00280031
:404000002300150010000E0009000200FCFFF6FFF9FFFEFFFDFFF8FFF3FFE9FFDCFFDEFFECFFF1FFECFFEEFFEFFFF3FFF4FFEDFFEAFFF4FFFAFFF9FFF6FFF7FFFBFFFAFF98
:40404000F5FFEFFFEAFFE8FFE7FFE6FFE3FFE2FFE9FFF3FFFAFF0100090016002300320041004600410033001F0017001E0025001B00120010000E0007000100FBFFF8FF00
:40408000FBFFFCFFFBFFFAFFF7FFF1FFE5FFDEFFEAFFF3FFF1FFF0FFEEFFF0FFF1FFEEFFE9FFF0FFF5FFF4FFF4FFF6FFF7FFF6FFF4FFF2FFECFFE9FFE7FFE6FFE3FFE6FF24
:4040C000EAFFF2FFFAFF01000C001B00290036003F00400039002E00200017001F0027001A0012000D000C0006000200FDFFFAFFFDFFFDFFFBFFF7FFF0FFE5FFDDFFE4FF47
:40410000F2FFF0FFEFFFEDFFEFFFF2FFEFFFEAFFEDFFF4FFF7FFF5FFF4FFF8FFF8FFF6FFF3FFEFFFEAFFE9FFE8FFE5FFE3FFE6FFECFFF6FFFDFF060010001D002C003A00B8
:40414000430042003A00250016001E0026002300150010000E000C000500FFFFFCFFFBFFFAFFFCFFFAFFF8FFF4FFEDFFE3FFE5FFF1FFF0FFEBFFEFFFF0FFEFFFF0FFEAFFB2
:40418000EAFFF3FFF4FFF1FFF4FFF5FFF6FFF5FFF2FFEFFFEBFFEAFFE8FFE5FFE4FFE9FFF0FFF8FFFFFF0700120021002B0038003D003C00320027001C001B00230022005A
:4041C00017000F000E000C0004000100FCFFFCFFFEFFFFFFFAFFF6FFEEFFE4FFDFFFEBFFF2FFF1FFF0FFECFFEFFFEFFFEEFFEBFFEFFFF3FFF5FFF4FFF5FFF5FFF5FFF4FFFF
:40420000F1FFECFFE9FFE9FFE8FFE7FFE6FFECFFF3FFFCFF01000B001600240035004000420039002A001B001D00260024001700160011000D00090003000000FDFFFBFF1A
:40424000FCFFFBFFFAFFF5FFEEFFE5FFE1FFEBFFF5FFF1FFECFFEBFFEDFFF4FFEEFFE9FFEFFFF4FFF2FFF2FFF2FFF3FFF4FFF3FFEFFFECFFEAFFEAFFEAFFE7FFE9FFEDFF7B
:40428000F5FFFCFF05000F001B00270032003900380032002D0024001800190024001D0014000E000F0009000400FFFFFBFFFDFFFFFFFDFFFAFFF4FFECFFE1FFE3FFEBFF72
:4042C000EFFFECFFEBFFEFFFF1FFF2FFEBFFECFFF4FFF7FFF6FFF3FFF4FFF3FFF3FFF0FFEBFFE9FFE8FFE8FFE8FFE7FFEAFFEFFFFAFF01000700110021002F003C0041009E
:404300003C002D001B001800230026001900170012000E000A00070002000100FEFFFCFFFCFFFCFFF9FFF4FFEAFFE0FFE2FFEEFFF0FFEBFFEDFFEEFFEFFFEEFFEBFFECFF63
:40434000F5FFF4FFF1FFF1FFF4FFF5FFF3FFEFFFEDFFEAFFEAFFEAFFE9FFEAFFEEFFF4FFFAFF02000900140020002C003700380037002F001F0014001E0027001C00140076
:4043800010000E000B0006000100FEFFFFFF0000FEFFFBFFF7FFF0FFE6FFE3FFEBFFF0FFEDFFECFFEDFFF1FFF1FFECFFEBFFF1FFF6FFF6FFF3FFF3FFF5FFF4FFF1FFEDFF5D
:4043C000EAFFE9FFE9FFE9FFE7FFE9FFEDFFF6FFFFFF050010001E002B0037003C0038002F0024001D001C0022002100180012000F000C00080006000100FDFFFDFFFEFF4E
:40440000FDFFF9FFF3FFEAFFE2FFE5FFEEFFEFFFECFFEDFFF0FFF0FFEEFFEAFFEBFFF2FFF3FFF1FFF2FFF5FFF6FFF3FFEFFFECFFE9FFEBFFEBFFE9FFE8FFEDFFF3FFF9FFBF
:404440000000070010001E002B0037003C0038002C001E001900210023001C00160012000F000C00080002000000FFFFFFFFFFFFFDFFF8FFF2FFE8FFE1FFE7FFEFFFECFFBD
:40448000E9FFECFFF0FFF2FFEFFFE9FFEEFFF6FFF7FFF2FFF3FFF4FFF4FFF1FFEEFFE9FFE7FFE9FFEAFFE8FFEAFFF0FFF7FFFEFF04000B001700260035003E003C00310078
:4044C0001F0018001F0025001F001700120011000F000A00040002000100FEFFFEFFFDFFFBFFF5FFEDFFE2FFE1FFECFFF1FFEDFFEBFFEDFFF0FFF1FFEBFFEBFFF2FFF4FF03
:40450000F2FFF1FFF3FFF4FFF2FFEFFFEBFFE8FFE9FFEAFFE9FFE9FFEEFFF3FFF9FF0100080011001E002A003100380037002F00210018001D0022001D0015001100100091
:404540000F00090003000100010000000100FDFFF9FFF3FFE9FFE2FFE6FFEEFFEDFFECFFEDFFEEFFF0FFEFFFEAFFEFFFF3FFF4FFF2FFF3FFF2FFF3FFF1FFEDFFEAFFE9FFE0
:40458000E9FFEAFFEAFFEAFFEEFFF6FFFDFF04000D0019002400300039003A00300025001A001C00220021001700130010000F000C00060002000100FFFF0000FFFFFBFF67
:4045C000F6FFEEFFE2FFE4FFEEFFEFFFEBFFEDFFEDFFF2FFEFFFEAFFEBFFF2FFF4FFF2FFF1FFF3FFF5FFF3FFEFFFEBFFE8FFE8FFEAFFE9FFE9FFEDFFF3FFFBFF00000700EB
:4046000010001C002600300037003500300026001900170022002100150011000F000E000B0005000100020001000100FEFFFAFFF4FFEBFFE6FFE9FFF0FFEBFFEAFFEDFF1D
:40464000EFFFF0FFEEFFE9FFEDFFF3FFF4FFF2FFF1FFF3FFF4FFF1FFEDFFEAFFE8FFE8FFEAFFE9FFEAFFEEFFF7FFFCFF04000A0014001F002D003600380034002700180077
:404680001A0023002100170015000F0010000D00080004000300010000000000FCFFF7FFEFFFE5FFE6FFEFFFEEFFEBFFEFFFF0FFF0FFEDFFEAFFEDFFF2FFF4FFF1FFF1FF76
:4046C000F3FFF6FFF3FFEFFFECFFE9FFE9FFE9FFE8FFE9FFEDFFF4FFFAFFFFFF06000F00180025002D00350037003000260019001800220021001600110010000E000B00A6
:4047000006000300020003000200FFFFFAFFF5FFECFFE6FFE9FFF2FFECFFEBFFECFFEFFFF1FFEDFFEAFFEEFFF3FFF4FFF2FFF3FFF4FFF4FFF2FFEEFFEAFFE9FFE8FFE9FF49
:40474000E8FFE9FFEEFFF5FFFDFF02000A0015001E002C0036003700330029001B0019001E002000190015000F000E000D00090005000300020002000100FDFFF7FFEFFF99
:40478000E6FFE7FFEDFFEEFFEBFFECFFF0FFF4FFF0FFECFFEDFFF1FFF4FFF3FFF1FFF3FFF5FFF4FFF0FFECFFE9FFE9FFE9FFE9FFE8FFECFFF3FFFBFF0100070010001800D2
:4047C00021002A003000310030002A001E0013001A002100180013000D000E000C00060003000100020003000000FCFFF4FFECFFE6FFEBFFF0FFECFFEBFFEFFFF2FFF1FFAB
:40480000EDFFEBFFF0FFF3FFF4FFF3FFF3FFF5FFF4FFF2FFEEFFEBFFE9FFE8FFE8FFE8FFE9FFEDFFF5FFFAFF0100070010001A0027003200370036002D001B0014001F006A
:4048400021001C0013000F000D000C00080005000200030003000000FDFFF7FFEDFFE7FFE8FFEDFFEAFFEDFFF1FFF2FFF2FFEEFFECFFF0FFF4FFF4FFF3FFF2FFF4FFF6FFF5
:40488000F4FFF0FFEDFFEBFFE9FFE9FFE9FFE9FFEDFFF3FFF8FFFDFF05000B0014001E0029003100350034002C001E0015001A0022001B0012000E000D000C0006000200D3
:4048C000020003000300FFFFFBFFF3FFEAFFE6FFEEFFEFFFEAFFEDFFF1FFF1FFF2FFEEFFEDFFF2FFF4FFF3FFF3FFF4FFF5FFF6FFF3FFF0FFEDFFEAFFEAFFE8FFE8FFEAFFA4
:40490000EDFFF4FFF9FFFFFF05000E00170024002C00340035002C0024001D001A001B001F00180010000D000C000A0006000200020002000100FCFFF6FFECFFE6FFECFFFB
:40494000F1FFECFFEBFFEEFFF4FFF3FFEEFFEBFFF0FFF4FFF4FFF0FFF2FFF5FFF7FFF4FFF2FFEEFFECFFECFFEBFFE8FFE8FFECFFF1FFF6FFFCFF02000B0014001E00280099
:404980003100350033002D0022001700180021001B0012000E000D000C0007000300000003000200FEFFFAFFF3FFE9FFE8FFF2FFF1FFE8FFECFFF3FFF2FFEEFFEBFFEDFF4C
:4049C000F3FFF4FFF0FFF2FFF5FFF6FFF5FFF3FFF1FFEFFFECFFEAFFE8FFE8FFEAFFEFFFF4FFF8FFFDFF04000D00150021002B003500360033002500180017001E00200044
:404A000017000F000E000D000A0005000100020002000000FCFFF6FFEEFFE8FFEBFFF2FFECFFEBFFEFFFF1FFF5FFF0FFEDFFF0FFF2FFF4FFF3FFF1FFF2FFF5FFF5FFF3FF80
:404A4000EFFFECFFECFFEBFFE9FFE9FFECFFF1FFF7FFFDFF03000A0011001B0023002B003100340031002800170010001F00210014000F000B000C0008000300FFFF0200FA
:404A80000500FFFFFAFFF2FFE7FFE6FFEFFFF0FFEBFFEAFFF0FFF6FFF2FFECFFEBFFF0FFF5FFF3FFF1FFF2FFF5FFF6FFF4FFF1FFEEFFEDFFECFFEAFFE9FFEBFFEEFFF4FF03
:404AC000FAFFFEFF03000B0013001F00290033000C090000380000008416000001000000FFFF00007F800000010000000000E02EC05D00001800000000366E010000000056
:404B000000000000000000000000000000000000000000000000000000000000F20A0000000000000000000000000000000000000000000000000000000000000000000079
:404B4000000000000000000000000000000000000000000000000000000000009CC0FF1F0000000000000000000000000000000000000000000000000000000000000000BB
:404B800000000000000000000000000000000000000000000000000000000000000000000000000000000000000000000000000000000000000000000000000000000000F5
:404BC00000000000000000000000000000000000000000000000000000000000000000000000000000000000000000000000000000000000000000000000000000000000B5
:404C00000000000000000000000000000000000000000000000000000000000000000000000000000000000000000000000000000000000000000000000000000000000074
:404C40000000000000000000000000000000000000000000000000000000000000000000000000000000000000000000000000000000000000000000000000000000000034
:020000040003F7
:0200000480007A
:40000000024F0040015A00400107014001090140040A0140010B014001150140011B0140024001400141014003420140034301400246014001470140034801400149014074
:40004000014C0140024D01400151014001800A4B9701EE08AF20B820BE10D804DF011F20EC10EC103D80CE20A5406302A540D640A540AF01EE103020CC08A4202550A5403E
:40008000C820B510A420B420EC0810020000000000000200004B4B00000000000000000000000000000000000000000000000000000000000000000000000000000000005D
:4000C0000000000000000000000000000000000000000000000000000000000000000000000000000000000000000000000000000000000000000000000000000000000000
:4001000000000000000000000000000000000000000000000000000000000000000000000000000000000000000000000000000000000000000000000000000000000000BF
:40014000000000000000000000000000000000000000000000000000000000000000000000000000000000000000000000000000000000000000000000000000000000007F
:40018000000000000000000000000000000000000000000000000000000000000000000000000000000000000000000000000000000000000000000000000000000000003F
:0200000490006A
:0400000000004005B7
:0200000490105A
:04000000BC90ACAF55
:0200000490303A
:02000000EBF81B
:0200000490402A
:4000000000000000000000000000000000000000000000000000000000000000000000000000000000000000000000000000000000000000000000000000000000000000C0
:400040000000000000000000000000000000000000000000000000000000000000000000000000000000000000000000000000000000000000000000000000000000000080
:400080000000000000000000000000000000000000000000000000000000000000000000000000000000000000000000000000000000000000000000000000000000000040
:4000C0000000000000000000000000000000000000000000000000000000000000000000000000000000000000000000000000000000000000000000000000000000000000
:0200000490501A
:0C00000000012E12306900012E2F1C613F
:00000001FF