:03000000020100FA
:03000300020100F7
:03000B00020100EF
:03001300020100E7
:03001B00020100DF
:03002300020100D7
:03002B00020100CF
:10010000C2AF12013F1202AE0A0D57656C636F6DEC
:100110006520746F20362E313135210A0D4D494E40
:100120004D4F4E3E200075812FC2AFC2001202AE6D
:100130000D0A2A00C298120271FA02028D80E77538
:100140008920758841758DFD7598502202270227F8
:100150000227022701DF0227022701C902270227FF
:100160000227022702270227022702270227022747
:1001700001AE022702270227022701820227022757
:100180000227120255D2E7C0E01202CD120255C07A
:10019000E01202CDD082D0831202A4B43D0D12022F
:1001A0009C1202551202CDF002013D02023D1202E4
:1001B00055F5831202CD12025585E0821202CD124E
:1001C00002C2E01202CD02013D120255FF1202CD21
:1001D000120255C0E01202CD1202C2EFC0E022129C
:1001E00002C2743E12029C1202A4B43AFA120267CE
:1001F0006021F8120267D2E7F583120267F58212D6
:100200000267120267F0A3D8F9120267742E120275
:100210009C80D4120267120267120267120267748E
:100220002E12029C02013D1202AE0D0A2062616490
:1002300020636F6D6D616E64200002013D1202AE9D
:100240000D0A2062616420706172616D657465726F
:10025000200002013D1202A41202F4C4F5F01202C1
:10026000A41202F445F022120255200001220202DB
:100270003D1202A4C2E512029CC394405003120234
:100280003DC0E0941B400312023DD0E02290014C9F
:10029000EA230493C0E0EA2393C0E022C299F599CF
:1002A0003099FD223098FDE599547FC29822D08381
:1002B000D082E493B40002800612029CA380F374FF
:1002C0000173740A12029C740D12029C22C0E01287
:1002D00002DC12029CEA12029CD0E022FA540F24A3
:1002E000F650022407243ACAC4540F24F6500224BC
:1002F00007243A22C20024D05017C324F640032416
:100300000A22C2E5C324F95008C324FA4003540F5B
:0903100022D20002013D020000AE
:00000001FF
